{
  "_format": "hh-sol-artifact-1",
  "contractName": "AnonymousPropertyVotingV2",
  "sourceName": "contracts/AnonymousPropertyVotingV2.sol",
  "abi": [
    {
      "inputs": [
        {
          "internalType": "address",
          "name": "_gateway",
          "type": "address"
        }
      ],
      "stateMutability": "nonpayable",
      "type": "constructor"
    },
    {
      "inputs": [],
      "name": "HandlesAlreadySavedForRequestID",
      "type": "error"
    },
    {
      "inputs": [],
      "name": "InvalidKMSSignatures",
      "type": "error"
    },
    {
      "inputs": [],
      "name": "NoHandleFoundForRequestID",
      "type": "error"
    },
    {
      "anonymous": false,
      "inputs": [
        {
          "indexed": true,
          "internalType": "uint256",
          "name": "requestID",
          "type": "uint256"
        }
      ],
      "name": "DecryptionFulfilled",
      "type": "event"
    },
    {
      "anonymous": false,
      "inputs": [
        {
          "indexed": true,
          "internalType": "address",
          "name": "oldGateway",
          "type": "address"
        },
        {
          "indexed": true,
          "internalType": "address",
          "name": "newGateway",
          "type": "address"
        }
      ],
      "name": "GatewayUpdated",
      "type": "event"
    },
    {
      "anonymous": false,
      "inputs": [
        {
          "indexed": true,
          "internalType": "uint16",
          "name": "proposalId",
          "type": "uint16"
        },
        {
          "indexed": false,
          "internalType": "string",
          "name": "title",
          "type": "string"
        },
        {
          "indexed": false,
          "internalType": "uint256",
          "name": "endTime",
          "type": "uint256"
        }
      ],
      "name": "ProposalCreated",
      "type": "event"
    },
    {
      "anonymous": false,
      "inputs": [
        {
          "indexed": true,
          "internalType": "uint16",
          "name": "proposalId",
          "type": "uint16"
        },
        {
          "indexed": false,
          "internalType": "uint16",
          "name": "yesVotes",
          "type": "uint16"
        },
        {
          "indexed": false,
          "internalType": "uint16",
          "name": "noVotes",
          "type": "uint16"
        }
      ],
      "name": "ProposalEnded",
      "type": "event"
    },
    {
      "anonymous": false,
      "inputs": [
        {
          "indexed": true,
          "internalType": "address",
          "name": "resident",
          "type": "address"
        }
      ],
      "name": "ResidentRegistered",
      "type": "event"
    },
    {
      "anonymous": false,
      "inputs": [
        {
          "indexed": true,
          "internalType": "uint16",
          "name": "proposalId",
          "type": "uint16"
        },
        {
          "indexed": false,
          "internalType": "bool",
          "name": "approved",
          "type": "bool"
        }
      ],
      "name": "ResultsRevealed",
      "type": "event"
    },
    {
      "anonymous": false,
      "inputs": [
        {
          "indexed": true,
          "internalType": "address",
          "name": "voter",
          "type": "address"
        },
        {
          "indexed": true,
          "internalType": "uint16",
          "name": "proposalId",
          "type": "uint16"
        }
      ],
      "name": "VoteSubmitted",
      "type": "event"
    },
    {
      "inputs": [
        {
          "internalType": "string",
          "name": "title",
          "type": "string"
        },
        {
          "internalType": "string",
          "name": "description",
          "type": "string"
        },
        {
          "internalType": "uint256",
          "name": "votingDurationHours",
          "type": "uint256"
        }
      ],
      "name": "createProposal",
      "outputs": [],
      "stateMutability": "nonpayable",
      "type": "function"
    },
    {
      "inputs": [],
      "name": "currentProposal",
      "outputs": [
        {
          "internalType": "uint16",
          "name": "",
          "type": "uint16"
        }
      ],
      "stateMutability": "view",
      "type": "function"
    },
    {
      "inputs": [
        {
          "internalType": "uint16",
          "name": "proposalId",
          "type": "uint16"
        }
      ],
      "name": "endProposal",
      "outputs": [],
      "stateMutability": "nonpayable",
      "type": "function"
    },
    {
      "inputs": [],
      "name": "gateway",
      "outputs": [
        {
          "internalType": "address",
          "name": "",
          "type": "address"
        }
      ],
      "stateMutability": "view",
      "type": "function"
    },
    {
      "inputs": [],
      "name": "getCurrentProposalInfo",
      "outputs": [
        {
          "internalType": "uint16",
          "name": "proposalId",
          "type": "uint16"
        },
        {
          "internalType": "string",
          "name": "title",
          "type": "string"
        },
        {
          "internalType": "string",
          "name": "description",
          "type": "string"
        },
        {
          "internalType": "bool",
          "name": "isActive",
          "type": "bool"
        },
        {
          "internalType": "uint256",
          "name": "startTime",
          "type": "uint256"
        },
        {
          "internalType": "uint256",
          "name": "endTime",
          "type": "uint256"
        },
        {
          "internalType": "uint16",
          "name": "totalVotes",
          "type": "uint16"
        }
      ],
      "stateMutability": "view",
      "type": "function"
    },
    {
      "inputs": [
        {
          "internalType": "uint16",
          "name": "proposalId",
          "type": "uint16"
        }
      ],
      "name": "getProposalResults",
      "outputs": [
        {
          "internalType": "bool",
          "name": "resultsRevealed",
          "type": "bool"
        },
        {
          "internalType": "uint16",
          "name": "totalVotes",
          "type": "uint16"
        },
        {
          "internalType": "uint16",
          "name": "yesVotes",
          "type": "uint16"
        },
        {
          "internalType": "uint16",
          "name": "noVotes",
          "type": "uint16"
        },
        {
          "internalType": "bool",
          "name": "approved",
          "type": "bool"
        }
      ],
      "stateMutability": "view",
      "type": "function"
    },
    {
      "inputs": [
        {
          "internalType": "address",
          "name": "resident",
          "type": "address"
        }
      ],
      "name": "getResidentStatus",
      "outputs": [
        {
          "internalType": "bool",
          "name": "isRegistered",
          "type": "bool"
        },
        {
          "internalType": "uint256",
          "name": "registrationTime",
          "type": "uint256"
        },
        {
          "internalType": "bool",
          "name": "hasVotedCurrentProposal",
          "type": "bool"
        }
      ],
      "stateMutability": "view",
      "type": "function"
    },
    {
      "inputs": [],
      "name": "getTotalResidents",
      "outputs": [
        {
          "internalType": "uint256",
          "name": "",
          "type": "uint256"
        }
      ],
      "stateMutability": "view",
      "type": "function"
    },
    {
      "inputs": [],
      "name": "getVersionInfo",
      "outputs": [
        {
          "internalType": "string",
          "name": "version",
          "type": "string"
        },
        {
          "internalType": "string",
          "name": "features",
          "type": "string"
        }
      ],
      "stateMutability": "pure",
      "type": "function"
    },
    {
      "inputs": [
        {
          "internalType": "uint16",
          "name": "proposalId",
          "type": "uint16"
        }
      ],
      "name": "getVotingTimeLeft",
      "outputs": [
        {
          "internalType": "uint256",
          "name": "",
          "type": "uint256"
        }
      ],
      "stateMutability": "view",
      "type": "function"
    },
    {
      "inputs": [],
      "name": "isDecryptionAllowed",
      "outputs": [
        {
          "internalType": "bool",
          "name": "",
          "type": "bool"
        }
      ],
      "stateMutability": "view",
      "type": "function"
    },
    {
      "inputs": [
        {
          "internalType": "uint16",
          "name": "proposalId",
          "type": "uint16"
        }
      ],
      "name": "isVotingActive",
      "outputs": [
        {
          "internalType": "bool",
          "name": "",
          "type": "bool"
        }
      ],
      "stateMutability": "view",
      "type": "function"
    },
    {
      "inputs": [
        {
          "internalType": "uint256",
          "name": "requestId",
          "type": "uint256"
        },
        {
          "internalType": "uint8[]",
          "name": "decryptedVotes",
          "type": "uint8[]"
        },
        {
          "internalType": "bytes[]",
          "name": "signatures",
          "type": "bytes[]"
        }
      ],
      "name": "processVoteResults",
      "outputs": [],
      "stateMutability": "nonpayable",
      "type": "function"
    },
    {
      "inputs": [],
      "name": "propertyManager",
      "outputs": [
        {
          "internalType": "address",
          "name": "",
          "type": "address"
        }
      ],
      "stateMutability": "view",
      "type": "function"
    },
    {
      "inputs": [],
      "name": "proposalCreationTime",
      "outputs": [
        {
          "internalType": "uint256",
          "name": "",
          "type": "uint256"
        }
      ],
      "stateMutability": "view",
      "type": "function"
    },
    {
      "inputs": [
        {
          "internalType": "uint16",
          "name": "",
          "type": "uint16"
        },
        {
          "internalType": "address",
          "name": "",
          "type": "address"
        }
      ],
      "name": "proposalVotes",
      "outputs": [
        {
          "internalType": "euint8",
          "name": "vote",
          "type": "bytes32"
        },
        {
          "internalType": "uint256",
          "name": "timestamp",
          "type": "uint256"
        },
        {
          "internalType": "bool",
          "name": "submitted",
          "type": "bool"
        }
      ],
      "stateMutability": "view",
      "type": "function"
    },
    {
      "inputs": [
        {
          "internalType": "uint16",
          "name": "",
          "type": "uint16"
        }
      ],
      "name": "proposals",
      "outputs": [
        {
          "internalType": "string",
          "name": "title",
          "type": "string"
        },
        {
          "internalType": "string",
          "name": "description",
          "type": "string"
        },
        {
          "internalType": "bool",
          "name": "isActive",
          "type": "bool"
        },
        {
          "internalType": "uint256",
          "name": "startTime",
          "type": "uint256"
        },
        {
          "internalType": "uint256",
          "name": "endTime",
          "type": "uint256"
        },
        {
          "internalType": "uint256",
          "name": "votingPeriod",
          "type": "uint256"
        },
        {
          "internalType": "uint16",
          "name": "totalVotes",
          "type": "uint16"
        },
        {
          "internalType": "uint16",
          "name": "yesVotes",
          "type": "uint16"
        },
        {
          "internalType": "uint16",
          "name": "noVotes",
          "type": "uint16"
        },
        {
          "internalType": "bool",
          "name": "resultsRevealed",
          "type": "bool"
        }
      ],
      "stateMutability": "view",
      "type": "function"
    },
    {
      "inputs": [],
      "name": "protocolId",
      "outputs": [
        {
          "internalType": "uint256",
          "name": "",
          "type": "uint256"
        }
      ],
      "stateMutability": "pure",
      "type": "function"
    },
    {
      "inputs": [
        {
          "internalType": "uint8",
          "name": "unitNumber",
          "type": "uint8"
        }
      ],
      "name": "registerResident",
      "outputs": [],
      "stateMutability": "nonpayable",
      "type": "function"
    },
    {
      "inputs": [
        {
          "internalType": "uint256",
          "name": "",
          "type": "uint256"
        }
      ],
      "name": "registeredResidents",
      "outputs": [
        {
          "internalType": "address",
          "name": "",
          "type": "address"
        }
      ],
      "stateMutability": "view",
      "type": "function"
    },
    {
      "inputs": [
        {
          "internalType": "address",
          "name": "",
          "type": "address"
        }
      ],
      "name": "residents",
      "outputs": [
        {
          "internalType": "bool",
          "name": "isRegistered",
          "type": "bool"
        },
        {
          "internalType": "bool",
          "name": "hasVoted",
          "type": "bool"
        },
        {
          "internalType": "uint256",
          "name": "registrationTime",
          "type": "uint256"
        },
        {
          "internalType": "euint8",
          "name": "encryptedUnit",
          "type": "bytes32"
        }
      ],
      "stateMutability": "view",
      "type": "function"
    },
    {
      "inputs": [
        {
          "internalType": "address",
          "name": "_newGateway",
          "type": "address"
        }
      ],
      "name": "setGateway",
      "outputs": [],
      "stateMutability": "nonpayable",
      "type": "function"
    },
    {
      "inputs": [
        {
          "internalType": "uint16",
          "name": "proposalId",
          "type": "uint16"
        },
        {
          "internalType": "uint8",
          "name": "voteChoice",
          "type": "uint8"
        }
      ],
      "name": "submitVote",
      "outputs": [],
      "stateMutability": "nonpayable",
      "type": "function"
    }
  ],
  "bytecode": "0x608060405234801562000010575f80fd5b5060405162002af738038062002af7833981016040819052620000339162000273565b620000d9620000d3604080516080810182525f808252602082018190529181018290526060810191909152506040805160808101825273687820221192c5b662b25367f70076a37bc79b6c815273848b0066793bcc60346da1f49049357399b8d595602082015273a02cda4ca3a71d7c46997716f4283aa851c2881291810191909152731364cbbf2cdf5032c47d8226a6f6fbd2afcdacac606082015290565b6200015f565b5f8054600160a01b6001600160b01b03199091163361ffff60a01b19161717905542600155600680546001600160a01b0319166001600160a01b0383169081179091551562000158576040516001600160a01b038216905f907f68e84423772dadc3e4047f8b5bd221ddb02dc67796e7852533fd976947d86c51908290a35b506200029b565b80517f9e7b61f58c47dc699ac88507c4f5bb9f121c03808c5676a8078fe583e464970080546001600160a01b03199081166001600160a01b039384161790915560208301517f9e7b61f58c47dc699ac88507c4f5bb9f121c03808c5676a8078fe583e46497018054831691841691909117905560408301517f9e7b61f58c47dc699ac88507c4f5bb9f121c03808c5676a8078fe583e46497028054831691841691909117905560608301517f9e7b61f58c47dc699ac88507c4f5bb9f121c03808c5676a8078fe583e46497038054909216921691909117905550565b50565b5f6001600160a01b0382165b92915050565b6200025b816200023e565b81146200023b575f80fd5b80516200024a8162000250565b5f602082840312156200028857620002885f80fd5b62000294838362000266565b9392505050565b61284e80620002a95f395ff3fe608060405234801561000f575f80fd5b5060043610610148575f3560e01c806362d24d15116100bf578063b6df18b711610079578063b6df18b714610358578063bdbe4e4814610360578063c497efa3146103be578063da1f12ab146103e7578063e4d65d54146103ef578063e7356cb514610439575f80fd5b806362d24d15146102e85780636b528c361461030357806386871551146103165780638c82da951461032957806390646b4a1461033c578063b0091d581461034f575f80fd5b80632e9413dc116101105780632e9413dc146101d457806330c7c79d146101e7578063322d5a47146101fc5780633f085ee31461020f578063559239c01461025a5780635da645c3146102c8575f80fd5b80630ce0ebf41461014c578063116191b614610161578063164e63741461018a5780632b49d425146101a05780632d1a8a9c146101c1575b5f80fd5b61015f61015a366004611973565b61044b565b005b600654610174906001600160a01b031681565b6040516101819190611a10565b60405180910390f35b6101926105c0565b604051610181929190611a71565b5f546101b490600160a01b900461ffff1681565b6040516101819190611aa0565b61015f6101cf366004611ad7565b61060f565b61015f6101e2366004611b0d565b610883565b6101ef6109da565b6040516101819190611b32565b61015f61020a366004611b40565b610a66565b61024b61021d366004611b71565b600460209081525f928352604080842090915290825290208054600182015460029092015490919060ff1683565b60405161018193929190611bb4565b6102b9610268366004611bdc565b6001600160a01b03165f81815260036020908152604080832080546001909101548454600160a01b900461ffff1685526002845282852095855260089095019092529091205460ff91821693911690565b60405161018193929190611bf9565b6102db6102d6366004611b40565b610cd7565b6040516101819190611c07565b6102f0610d21565b6040516101819796959493929190611c15565b6101ef610311366004611b40565b610ea1565b61015f610324366004611db0565b610edd565b610174610337366004611e2e565b6110ea565b61015f61034a366004611bdc565b611112565b6102db60015481565b6005546102db565b6103ad61036e366004611b40565b61ffff9081165f90815260026020526040902060060154600160301b810460ff1692818316926201000083048116926401000000009004169081831190565b604051610181959493929190611e4b565b6103d16103cc366004611b40565b61118c565b6040516101819a99989796959493929190611e97565b6127116102db565b6104296103fd366004611bdc565b60036020525f908152604090208054600182015460029092015460ff8083169361010090930416919084565b6040516101819493929190611f38565b5f54610174906001600160a01b031681565b5f546001600160a01b0316331461047d5760405162461bcd60e51b815260040161047490611fa3565b60405180910390fd5b6018811015801561048f575060a88111155b6104ab5760405162461bcd60e51b815260040161047490611fe5565b5f8054600160a01b900461ffff168152600260208190526040909120015460ff16156104e95760405162461bcd60e51b815260040161047490612027565b5f6104f682610e1061204b565b90505f6105038242612062565b5f8054600160a01b900461ffff1681526002602052604090209091508061052a878261214d565b5060018101610539868261214d565b5060028101805460ff19166001179055426003820155600481018290556005810183905560068101805466ffffffffffffff191690555f54604051600160a01b90910461ffff16907f19202c5d2c89fd93263846ac202f6266ed5a37fa4ad14ff31c2ae3e2cda4a99a906105b09089908690612209565b60405180910390a2505050505050565b606080604051806040016040528060128152602001710322e302e302d666845564d2d76302e362e360741b8152506040518060600160405280604081526020016127b960409139915091509091565b335f9081526003602052604090205460ff1661063d5760405162461bcd60e51b81526004016104749061225b565b61ffff82165f9081526002602081905260409091200154829060ff166106755760405162461bcd60e51b815260040161047490612293565b61ffff81165f908152600260205260409020600401544211156106aa5760405162461bcd60e51b8152600401610474906122cb565b60ff821615806106bd57508160ff166001145b6106d95760405162461bcd60e51b81526004016104749061230d565b61ffff83165f90815260046020908152604080832033845290915290206002015460ff161561071a5760405162461bcd60e51b81526004016104749061234f565b61ffff83165f90815260026020908152604080832033845260080190915290205460ff161561075b5760405162461bcd60e51b81526004016104749061234f565b5f610765836112fd565b60408051606081018252828152426020808301918252600183850181815261ffff808c165f81815260048652888120338083529087528982209851895596518886015592516002978801805491151560ff199283161790558184528786528884208785526008810187529884208054909116851790559584526007870180549384018155825292812090910180546001600160a01b031916909317909255918152600690920180549394509216919061081d8361235f565b91906101000a81548161ffff021916908361ffff160217905550506108418161130c565b5061084c813361131b565b5060405161ffff85169033907fe26d6859f9e30471a22dcd8ced1b5793cd16137994a453a593ee70aee60cda92905f90a350505050565b335f9081526003602052604090205460ff16156108b25760405162461bcd60e51b8152600401610474906123a4565b5f8160ff161180156108c8575060c88160ff1611155b6108e45760405162461bcd60e51b8152600401610474906123dc565b5f6108ee826112fd565b6040805160808101825260018082525f6020808401828152428587019081526060860188815233808652600390945296842095518654925161ffff1990931690151561ff0019161761010092151592909202919091178555518484015593516002909301929092556005805491820181559091527f036b6384b5eca791c62761152d0c79bb0604c104a5fb6f4eb0703f3154bb3db00180546001600160a01b031916909117905590506109a08161130c565b506109ab813361131b565b5060405133907fcf0b6369d76a8b3e6b0cc55ae93e538e0bdd0f5fed6455b9d0468cc5bcbfcf34905f90a25050565b6006545f906001600160a01b03166109f25750600190565b600654604051635cf91eb960e11b81526001600160a01b039091169063b9f23d7290610a22903090600401611a10565b602060405180830381865afa158015610a3d573d5f803e3d5ffd5b505050506040513d601f19601f82011682018060405250810190610a6191906123ff565b905090565b5f546001600160a01b03163314610a8f5760405162461bcd60e51b815260040161047490611fa3565b61ffff81165f9081526002602052604090206004015481904211610ac55760405162461bcd60e51b815260040161047490612444565b61ffff81165f90815260026020526040902060060154600160301b900460ff1615610b025760405162461bcd60e51b815260040161047490612486565b61ffff82165f908152600260208190526040909120015460ff16610b385760405162461bcd60e51b815260040161047490612293565b6006546001600160a01b031615610bd457600654604051638d99b79160e01b81526001600160a01b0390911690638d99b79190610b79903090600401611a10565b602060405180830381865afa158015610b94573d5f803e3d5ffd5b505050506040513d601f19601f82011682018060405250810190610bb891906123ff565b610bd45760405162461bcd60e51b815260040161047490612496565b61ffff82165f9081526002602081905260408220908101805460ff19169055600781015490919067ffffffffffffffff811115610c1357610c13611870565b604051908082528060200260200182016040528015610c3c578160200160208202803683370190505b5090505f5b6007830154811015610cbe575f836007018281548110610c6357610c636124e1565b5f91825260208083209091015461ffff891683526004825260408084206001600160a01b0390921680855291909252912054909150838381518110610caa57610caa6124e1565b602090810291909101015250600101610c41565b50610cd081638687155160e01b61132d565b5050505050565b61ffff81165f908152600260205260408120600401544210610cfa57505f919050565b61ffff82165f90815260026020526040902060040154610d1b9042906124f5565b92915050565b5f805461ffff600160a01b9091048116808352600260208190526040842090810154600382015460048301546006840154845460609788978a97889788978897929693958795600187019560ff90941694929316908690610d8190612089565b80601f0160208091040260200160405190810160405280929190818152602001828054610dad90612089565b8015610df85780601f10610dcf57610100808354040283529160200191610df8565b820191905f5260205f20905b815481529060010190602001808311610ddb57829003601f168201915b50505050509550848054610e0b90612089565b80601f0160208091040260200160405190810160405280929190818152602001828054610e3790612089565b8015610e825780601f10610e5957610100808354040283529160200191610e82565b820191905f5260205f20905b815481529060010190602001808311610e6557829003601f168201915b5050505050945097509750975097509750975097505090919293949596565b61ffff81165f9081526002602081905260408220015460ff168015610d1b57505061ffff165f9081526002602052604090206004015442111590565b5f82604051602001610eef9190612560565b60405160208183030381529060405290505f82604051602001610f1291906125d7565b6040516020818303038152906040529050610f2e858383611340565b5f8054600160a01b900461ffff1681526002602052604081209080805b8751811015610fc357878181518110610f6657610f666124e1565b602002602001015160ff16600103610f8a5782610f828161235f565b935050610fbb565b878181518110610f9c57610f9c6124e1565b602002602001015160ff165f03610fbb5781610fb78161235f565b9250505b600101610f4b565b50600683018054600160301b65ffffffff0000199091166201000061ffff86811691820265ffff000000001916929092176401000000008684169081029190911766ff0000000000001916939093179093555f546040519290931192600160a01b900416907f97c8388eb77299f1ebba4ae5893e7ca4d0030932426f82892601c214e9fe16489061105790869086906125e8565b60405180910390a25f60149054906101000a900461ffff1661ffff167f442fa70cca1b8a438745c1a975d44456f5b7cdd2db4536c6dc2cb9a0d3f138aa826040516110a29190611b32565b60405180910390a25f8054600160a01b900461ffff169060146110c48361235f565b91906101000a81548161ffff021916908361ffff16021790555050505050505050505050565b600581815481106110f9575f80fd5b5f918252602090912001546001600160a01b0316905081565b5f546001600160a01b0316331461113b5760405162461bcd60e51b815260040161047490611fa3565b600680546001600160a01b038381166001600160a01b0319831681179093556040519116919082907f68e84423772dadc3e4047f8b5bd221ddb02dc67796e7852533fd976947d86c51905f90a35050565b60026020525f90815260409020805481906111a690612089565b80601f01602080910402602001604051908101604052809291908181526020018280546111d290612089565b801561121d5780601f106111f45761010080835404028352916020019161121d565b820191905f5260205f20905b81548152906001019060200180831161120057829003601f168201915b50505050509080600101805461123290612089565b80601f016020809104026020016040519081016040528092919081815260200182805461125e90612089565b80156112a95780601f10611280576101008083540402835291602001916112a9565b820191905f5260205f20905b81548152906001019060200180831161128c57829003601f168201915b5050506002840154600385015460048601546005870154600690970154959660ff938416969295509093509161ffff80831692620100008104821692640100000000820490921691600160301b909104168a565b5f610d1b8260ff1660026113a9565b5f6113178230611453565b5090565b5f6113268383611453565b5090919050565b5f61133983835f6114c4565b9392505050565b5f61134a846115df565b90505f6113588285856116b0565b9050806113785760405163cf6c44e960e01b815260040160405180910390fd5b60405185907f1af0453083661051f6e56e5c070792320652e612154bf9af8637bb1e7655b99d905f90a25050505050565b7f9e7b61f58c47dc699ac88507c4f5bb9f121c03808c5676a8078fe583e464970154604051639cd07acb60e01b81525f915f805160206127f9833981519152916001600160a01b0390911690639cd07acb9061140b9087908790600401612644565b6020604051808303815f875af1158015611427573d5f803e3d5ffd5b505050506040513d601f19601f8201168201806040525081019061144b919061266a565b949350505050565b5f805160206127f98339815191528054604051635ca4b5b160e11b81526001600160a01b039091169063b9496b62906114929086908690600401612687565b5f604051808303815f87803b1580156114a9575f80fd5b505af11580156114bb573d5f803e3d5ffd5b50505050505050565b7f878245876662ba28a480c5ea71726db859fb50222b0a3d7cbbc21cfa336faf0080545f805160206127f98339815191528054604051637d6e912360e11b81529293926001600160a01b039091169063fadd2246906115279089906004016126e7565b5f604051808303815f87803b15801561153e575f80fd5b505af1158015611550573d5f803e3d5ffd5b5050506002820154604051633263b83b60e01b81526001600160a01b039091169150633263b83b90869061158c9087908b908b90600401612708565b5f604051808303818588803b1580156115a3575f80fd5b505af11580156115b5573d5f803e3d5ffd5b50505050506115c48387611789565b8154825f6115d183612737565b919050555050509392505050565b5f8181527f878245876662ba28a480c5ea71726db859fb50222b0a3d7cbbc21cfa336faf0160205260408120546060917f878245876662ba28a480c5ea71726db859fb50222b0a3d7cbbc21cfa336faf009190036116505760405163d66ca67560e01b815260040160405180910390fd5b5f838152600182016020908152604091829020805483518184028101840190945280845290918301828280156116a357602002820191905f5260205f20905b81548152602001906001019080831161168f575b5050505050915050919050565b5f80835160206116c09190612062565b6116cb906020612062565b90505f84826040516020016116e1929190612769565b60405160208183030381529060405290505f6117075f805160206127f983398151915290565b60038101546040516378542ead60e01b81529192506001600160a01b0316906378542ead9061173e908a9086908a9060040161277f565b6020604051808303815f875af115801561175a573d5f803e3d5ffd5b505050506040513d601f19601f8201168201806040525081019061177e91906123ff565b979650505050505050565b5f8281527f878245876662ba28a480c5ea71726db859fb50222b0a3d7cbbc21cfa336faf0160205260409020547f878245876662ba28a480c5ea71726db859fb50222b0a3d7cbbc21cfa336faf0090156117f657604051633f06d22b60e01b815260040160405180910390fd5b5f838152600182016020908152604090912083516118169285019061181c565b50505050565b828054828255905f5260205f20908101928215611855579160200282015b8281111561185557825182559160200191906001019061183a565b506113179291505b80821115611317575f815560010161185d565b634e487b7160e01b5f52604160045260245ffd5b601f19601f830116810181811067ffffffffffffffff821117156118aa576118aa611870565b6040525050565b5f6118bb60405190565b90506118c78282611884565b919050565b5f67ffffffffffffffff8211156118e5576118e5611870565b601f19601f8301165b60200192915050565b82818337505f910152565b5f61191461190f846118cc565b6118b1565b905082815283838301111561192a5761192a5f80fd5b6113398360208301846118f7565b5f82601f83011261194a5761194a5f80fd5b61133983833560208501611902565b805b8114611965575f80fd5b50565b8035610d1b81611959565b5f805f60608486031215611988576119885f80fd5b833567ffffffffffffffff8111156119a1576119a15f80fd5b6119ad86828701611938565b935050602084013567ffffffffffffffff8111156119cc576119cc5f80fd5b6119d886828701611938565b9250506119e88560408601611968565b90509250925092565b5f6001600160a01b038216610d1b565b611a0a816119f1565b82525050565b60208101610d1b8284611a01565b5f5b83811015611a38578181015183820152602001611a20565b50505f910152565b5f611a49825190565b808452602084019350611a60818560208601611a1e565b601f01601f19169290920192915050565b60408082528101611a828185611a40565b9050818103602083015261144b8184611a40565b61ffff8116611a0a565b60208101610d1b8284611a96565b61ffff811661195b565b8035610d1b81611aae565b60ff811661195b565b8035610d1b81611ac3565b5f8060408385031215611aeb57611aeb5f80fd5b611af58484611ab8565b9150611b048460208501611acc565b90509250929050565b5f60208284031215611b2057611b205f80fd5b6113398383611acc565b801515611a0a565b60208101610d1b8284611b2a565b5f60208284031215611b5357611b535f80fd5b6113398383611ab8565b61195b816119f1565b8035610d1b81611b5d565b5f8060408385031215611b8557611b855f80fd5b611b8f8484611ab8565b9150611b048460208501611b66565b5f81610d1b565b611a0a81611b9e565b80611a0a565b60608101611bc28286611ba5565b611bcf6020830185611bae565b61144b6040830184611b2a565b5f60208284031215611bef57611bef5f80fd5b6113398383611b66565b60608101611bc28286611b2a565b60208101610d1b8284611bae565b60e08101611c23828a611a96565b8181036020830152611c358189611a40565b90508181036040830152611c498188611a40565b9050611c586060830187611b2a565b611c656080830186611bae565b611c7260a0830185611bae565b611c7f60c0830184611a96565b98975050505050505050565b5f67ffffffffffffffff821115611ca457611ca4611870565b5060209081020190565b5f611cbb61190f84611c8b565b83815290506020808201908402830185811115611cd957611cd95f80fd5b835b81811015611cfb57611ced8782611acc565b835260209283019201611cdb565b5050509392505050565b5f82601f830112611d1757611d175f80fd5b61133983833560208501611cae565b5f611d3361190f84611c8b565b83815290506020808201908402830185811115611d5157611d515f80fd5b835b81811015611cfb57803567ffffffffffffffff811115611d7457611d745f80fd5b611d8088828801611938565b84525060209283019201611d53565b5f82601f830112611da157611da15f80fd5b61133983833560208501611d26565b5f805f60608486031215611dc557611dc55f80fd5b611dcf8585611968565b9250602084013567ffffffffffffffff811115611ded57611ded5f80fd5b611df986828701611d05565b925050604084013567ffffffffffffffff811115611e1857611e185f80fd5b611e2486828701611d8f565b9150509250925092565b5f60208284031215611e4157611e415f80fd5b6113398383611968565b60a08101611e598288611b2a565b611e666020830187611a96565b611e736040830186611a96565b611e806060830185611a96565b611e8d6080830184611b2a565b9695505050505050565b6101408082528101611ea9818d611a40565b90508181036020830152611ebd818c611a40565b9050611ecc604083018b611b2a565b611ed9606083018a611bae565b611ee66080830189611bae565b611ef360a0830188611bae565b611f0060c0830187611a96565b611f0d60e0830186611a96565b611f1b610100830185611a96565b611f29610120830184611b2a565b9b9a5050505050505050505050565b60808101611f468287611b2a565b611f536020830186611b2a565b611f606040830185611bae565b611f6d6060830184611ba5565b95945050505050565b6016815260208101752737ba1030baba3437b934bd32b21036b0b730b3b2b960511b815290505b60200190565b60208082528101610d1b81611f76565b60198152602081017f4475726174696f6e206d75737420626520312d3720646179730000000000000081529050611f9d565b60208082528101610d1b81611fb3565b601e8152602081017f50726576696f75732070726f706f73616c207374696c6c20616374697665000081529050611f9d565b60208082528101610d1b81611ff5565b634e487b7160e01b5f52601160045260245ffd5b8181028115828204841417610d1b57610d1b612037565b80820180821115610d1b57610d1b612037565b634e487b7160e01b5f52602260045260245ffd5b60028104600182168061209d57607f821691505b6020821081036120af576120af612075565b50919050565b5f610d1b6120c08381565b90565b6120cc836120b5565b81545f1960089490940293841b1916921b91909117905550565b5f6120f28184846120c3565b505050565b81811015612111576121095f826120e6565b6001016120f7565b5050565b601f8211156120f2575f818152602090206020601f8501048101602085101561213b5750805b610cd06020601f8601048301826120f7565b815167ffffffffffffffff81111561216757612167611870565b6121718254612089565b61217c828285612115565b506020601f8211600181146121af575f83156121985750848201515b5f19600885021c1981166002850217855550610cd0565b5f84815260208120601f198516915b828110156121de57878501518255602094850194600190920191016121be565b50848210156121fa57838701515f19601f87166008021c191681555b50505050600202600101905550565b6040808252810161221a8185611a40565b90506113396020830184611bae565b60198152602081017f4e6f7420612072656769737465726564207265736964656e740000000000000081529050611f9d565b60208082528101610d1b81612229565b60138152602081017250726f706f73616c206e6f742061637469766560681b81529050611f9d565b60208082528101610d1b8161226b565b601381526020810172159bdd1a5b99c81c195c9a5bd908195b991959606a1b81529050611f9d565b60208082528101610d1b816122a3565b601e8152602081017f566f7465206d757374206265203020284e6f29206f722031202859657329000081529050611f9d565b60208082528101610d1b816122db565b601e8152602081017f416c726561647920766f746564206f6e20746869732070726f706f73616c000081529050611f9d565b60208082528101610d1b8161231d565b61ffff165f61fffe19820161237657612376612037565b5060010190565b601281526020810171105b1c9958591e481c9959da5cdd195c995960721b81529050611f9d565b60208082528101610d1b8161237d565b60138152602081017224b73b30b634b2103ab734ba10373ab6b132b960691b81529050611f9d565b60208082528101610d1b816123b4565b80151561195b565b8051610d1b816123ec565b5f60208284031215612412576124125f80fd5b61133983836123f4565b601381526020810172566f74696e67207374696c6c2061637469766560681b81529050611f9d565b60208082528101610d1b8161241c565b60188152602081017f526573756c747320616c72656164792072657665616c6564000000000000000081529050611f9d565b60208082528101610d1b81612454565b60208082528101610d1b81602781527f476174657761793a2044656372797074696f6e2072657175657374206e6f7420602082015266185b1b1bddd95960ca1b604082015260600190565b634e487b7160e01b5f52603260045260245ffd5b81810381811115610d1b57610d1b612037565b60ff8116611a0a565b61251b8282612508565b5060200190565b5f61252b825190565b602083015f5b828110156125565781516125458782612511565b965050602082019150600101612531565b5093949350505050565b610d1b8183612522565b5f6113398383611a40565b5f61257e825190565b808452602084019350836020820285016125988560200190565b5f5b848110156125cb57838303885281516125b3848261256a565b9350506020820160209890980197915060010161259a565b50909695505050505050565b602080825281016113398184612575565b604081016125f68285611a96565b6113396020830184611a96565b634e487b7160e01b5f52602160045260245ffd5b6054811061196557611965612603565b806118c781612617565b5f610d1b82612627565b611a0a81612631565b604081016126528285611bae565b611339602083018461263b565b8051610d1b81611959565b5f6020828403121561267d5761267d5f80fd5b611339838361265f565b604081016126958285611bae565b6113396020830184611a01565b61251b8282611bae565b5f6126b5825190565b80845260209384019383015f5b828110156125565781516126d687826126a2565b9650506020820191506001016126c2565b6020808252810161133981846126ac565b6001600160e01b03198116611a0a565b606081016127168286611bae565b818103602083015261272881856126ac565b905061144b60408301846126f8565b5f6001820161237657612376612037565b5f612751825190565b61275f818560208601611a1e565b9290920192915050565b6127738184612748565b90506118ee8183611bae565b6060808252810161279081866126ac565b905081810360208301526127a48185611a40565b90508181036040830152611f6d8184611a4056fe4175746f2052652d72616e646f6d697a6174696f6e207c204761746577617920496e746567726174696f6e207c2073494e442d435041442053656375726974799e7b61f58c47dc699ac88507c4f5bb9f121c03808c5676a8078fe583e4649700a26469706673582212206bb50e978421fdf2ca5b2d509d0c6681726586009644717ec847b78f45012d2964736f6c63430008180033",
  "linkReferences": {},
  "deployedLinkReferences": {}
}