{
  "_format": "hh-sol-artifact-1",
  "contractName": "AnonymousPropertyVotingV2Fixed",
  "sourceName": "contracts/AnonymousPropertyVotingV2Fixed.sol",
  "abi": [
    {
      "inputs": [
        {
          "internalType": "address",
          "name": "_gateway",
          "type": "address"
        }
      ],
      "stateMutability": "nonpayable",
      "type": "constructor"
    },
    {
      "inputs": [],
      "name": "HandlesAlreadySavedForRequestID",
      "type": "error"
    },
    {
      "inputs": [],
      "name": "InvalidKMSSignatures",
      "type": "error"
    },
    {
      "inputs": [],
      "name": "NoHandleFoundForRequestID",
      "type": "error"
    },
    {
      "anonymous": false,
      "inputs": [
        {
          "indexed": true,
          "internalType": "uint256",
          "name": "requestID",
          "type": "uint256"
        }
      ],
      "name": "DecryptionFulfilled",
      "type": "event"
    },
    {
      "anonymous": false,
      "inputs": [
        {
          "indexed": true,
          "internalType": "address",
          "name": "oldGateway",
          "type": "address"
        },
        {
          "indexed": true,
          "internalType": "address",
          "name": "newGateway",
          "type": "address"
        }
      ],
      "name": "GatewayUpdated",
      "type": "event"
    },
    {
      "anonymous": false,
      "inputs": [
        {
          "indexed": true,
          "internalType": "uint16",
          "name": "proposalId",
          "type": "uint16"
        },
        {
          "indexed": false,
          "internalType": "string",
          "name": "title",
          "type": "string"
        },
        {
          "indexed": false,
          "internalType": "uint256",
          "name": "endTime",
          "type": "uint256"
        }
      ],
      "name": "ProposalCreated",
      "type": "event"
    },
    {
      "anonymous": false,
      "inputs": [
        {
          "indexed": true,
          "internalType": "uint16",
          "name": "proposalId",
          "type": "uint16"
        },
        {
          "indexed": false,
          "internalType": "uint16",
          "name": "yesVotes",
          "type": "uint16"
        },
        {
          "indexed": false,
          "internalType": "uint16",
          "name": "noVotes",
          "type": "uint16"
        }
      ],
      "name": "ProposalEnded",
      "type": "event"
    },
    {
      "anonymous": false,
      "inputs": [
        {
          "indexed": true,
          "internalType": "uint16",
          "name": "proposalId",
          "type": "uint16"
        },
        {
          "indexed": false,
          "internalType": "string",
          "name": "reason",
          "type": "string"
        }
      ],
      "name": "ProposalForceClosed",
      "type": "event"
    },
    {
      "anonymous": false,
      "inputs": [
        {
          "indexed": true,
          "internalType": "address",
          "name": "resident",
          "type": "address"
        }
      ],
      "name": "ResidentRegistered",
      "type": "event"
    },
    {
      "anonymous": false,
      "inputs": [
        {
          "indexed": true,
          "internalType": "uint16",
          "name": "proposalId",
          "type": "uint16"
        },
        {
          "indexed": false,
          "internalType": "bool",
          "name": "approved",
          "type": "bool"
        }
      ],
      "name": "ResultsRevealed",
      "type": "event"
    },
    {
      "anonymous": false,
      "inputs": [
        {
          "indexed": true,
          "internalType": "address",
          "name": "voter",
          "type": "address"
        },
        {
          "indexed": true,
          "internalType": "uint16",
          "name": "proposalId",
          "type": "uint16"
        }
      ],
      "name": "VoteSubmitted",
      "type": "event"
    },
    {
      "inputs": [
        {
          "internalType": "string",
          "name": "title",
          "type": "string"
        },
        {
          "internalType": "string",
          "name": "description",
          "type": "string"
        },
        {
          "internalType": "uint256",
          "name": "votingDurationHours",
          "type": "uint256"
        }
      ],
      "name": "createProposal",
      "outputs": [],
      "stateMutability": "nonpayable",
      "type": "function"
    },
    {
      "inputs": [],
      "name": "currentProposal",
      "outputs": [
        {
          "internalType": "uint16",
          "name": "",
          "type": "uint16"
        }
      ],
      "stateMutability": "view",
      "type": "function"
    },
    {
      "inputs": [
        {
          "internalType": "uint16",
          "name": "proposalId",
          "type": "uint16"
        }
      ],
      "name": "endProposal",
      "outputs": [],
      "stateMutability": "nonpayable",
      "type": "function"
    },
    {
      "inputs": [
        {
          "internalType": "uint16",
          "name": "proposalId",
          "type": "uint16"
        },
        {
          "internalType": "string",
          "name": "reason",
          "type": "string"
        }
      ],
      "name": "forceCloseProposal",
      "outputs": [],
      "stateMutability": "nonpayable",
      "type": "function"
    },
    {
      "inputs": [],
      "name": "gateway",
      "outputs": [
        {
          "internalType": "address",
          "name": "",
          "type": "address"
        }
      ],
      "stateMutability": "view",
      "type": "function"
    },
    {
      "inputs": [],
      "name": "getCurrentProposalInfo",
      "outputs": [
        {
          "internalType": "uint16",
          "name": "proposalId",
          "type": "uint16"
        },
        {
          "internalType": "string",
          "name": "title",
          "type": "string"
        },
        {
          "internalType": "string",
          "name": "description",
          "type": "string"
        },
        {
          "internalType": "bool",
          "name": "isActive",
          "type": "bool"
        },
        {
          "internalType": "uint256",
          "name": "startTime",
          "type": "uint256"
        },
        {
          "internalType": "uint256",
          "name": "endTime",
          "type": "uint256"
        },
        {
          "internalType": "uint16",
          "name": "totalVotes",
          "type": "uint16"
        }
      ],
      "stateMutability": "view",
      "type": "function"
    },
    {
      "inputs": [
        {
          "internalType": "uint16",
          "name": "proposalId",
          "type": "uint16"
        }
      ],
      "name": "getProposalResults",
      "outputs": [
        {
          "internalType": "bool",
          "name": "resultsRevealed",
          "type": "bool"
        },
        {
          "internalType": "uint16",
          "name": "totalVotes",
          "type": "uint16"
        },
        {
          "internalType": "uint16",
          "name": "yesVotes",
          "type": "uint16"
        },
        {
          "internalType": "uint16",
          "name": "noVotes",
          "type": "uint16"
        },
        {
          "internalType": "bool",
          "name": "approved",
          "type": "bool"
        }
      ],
      "stateMutability": "view",
      "type": "function"
    },
    {
      "inputs": [
        {
          "internalType": "address",
          "name": "resident",
          "type": "address"
        }
      ],
      "name": "getResidentStatus",
      "outputs": [
        {
          "internalType": "bool",
          "name": "isRegistered",
          "type": "bool"
        },
        {
          "internalType": "uint256",
          "name": "registrationTime",
          "type": "uint256"
        },
        {
          "internalType": "bool",
          "name": "hasVotedCurrentProposal",
          "type": "bool"
        }
      ],
      "stateMutability": "view",
      "type": "function"
    },
    {
      "inputs": [],
      "name": "getTotalResidents",
      "outputs": [
        {
          "internalType": "uint256",
          "name": "",
          "type": "uint256"
        }
      ],
      "stateMutability": "view",
      "type": "function"
    },
    {
      "inputs": [],
      "name": "getVersionInfo",
      "outputs": [
        {
          "internalType": "string",
          "name": "version",
          "type": "string"
        },
        {
          "internalType": "string",
          "name": "features",
          "type": "string"
        }
      ],
      "stateMutability": "pure",
      "type": "function"
    },
    {
      "inputs": [
        {
          "internalType": "uint16",
          "name": "proposalId",
          "type": "uint16"
        }
      ],
      "name": "getVotingTimeLeft",
      "outputs": [
        {
          "internalType": "uint256",
          "name": "",
          "type": "uint256"
        }
      ],
      "stateMutability": "view",
      "type": "function"
    },
    {
      "inputs": [],
      "name": "isDecryptionAllowed",
      "outputs": [
        {
          "internalType": "bool",
          "name": "",
          "type": "bool"
        }
      ],
      "stateMutability": "view",
      "type": "function"
    },
    {
      "inputs": [
        {
          "internalType": "uint16",
          "name": "proposalId",
          "type": "uint16"
        }
      ],
      "name": "isVotingActive",
      "outputs": [
        {
          "internalType": "bool",
          "name": "",
          "type": "bool"
        }
      ],
      "stateMutability": "view",
      "type": "function"
    },
    {
      "inputs": [
        {
          "internalType": "uint256",
          "name": "requestId",
          "type": "uint256"
        },
        {
          "internalType": "uint8[]",
          "name": "decryptedVotes",
          "type": "uint8[]"
        },
        {
          "internalType": "bytes[]",
          "name": "signatures",
          "type": "bytes[]"
        }
      ],
      "name": "processVoteResults",
      "outputs": [],
      "stateMutability": "nonpayable",
      "type": "function"
    },
    {
      "inputs": [],
      "name": "propertyManager",
      "outputs": [
        {
          "internalType": "address",
          "name": "",
          "type": "address"
        }
      ],
      "stateMutability": "view",
      "type": "function"
    },
    {
      "inputs": [],
      "name": "proposalCreationTime",
      "outputs": [
        {
          "internalType": "uint256",
          "name": "",
          "type": "uint256"
        }
      ],
      "stateMutability": "view",
      "type": "function"
    },
    {
      "inputs": [
        {
          "internalType": "uint16",
          "name": "",
          "type": "uint16"
        },
        {
          "internalType": "address",
          "name": "",
          "type": "address"
        }
      ],
      "name": "proposalVotes",
      "outputs": [
        {
          "internalType": "euint8",
          "name": "vote",
          "type": "bytes32"
        },
        {
          "internalType": "uint256",
          "name": "timestamp",
          "type": "uint256"
        },
        {
          "internalType": "bool",
          "name": "submitted",
          "type": "bool"
        }
      ],
      "stateMutability": "view",
      "type": "function"
    },
    {
      "inputs": [
        {
          "internalType": "uint16",
          "name": "",
          "type": "uint16"
        }
      ],
      "name": "proposals",
      "outputs": [
        {
          "internalType": "string",
          "name": "title",
          "type": "string"
        },
        {
          "internalType": "string",
          "name": "description",
          "type": "string"
        },
        {
          "internalType": "bool",
          "name": "isActive",
          "type": "bool"
        },
        {
          "internalType": "uint256",
          "name": "startTime",
          "type": "uint256"
        },
        {
          "internalType": "uint256",
          "name": "endTime",
          "type": "uint256"
        },
        {
          "internalType": "uint256",
          "name": "votingPeriod",
          "type": "uint256"
        },
        {
          "internalType": "uint16",
          "name": "totalVotes",
          "type": "uint16"
        },
        {
          "internalType": "uint16",
          "name": "yesVotes",
          "type": "uint16"
        },
        {
          "internalType": "uint16",
          "name": "noVotes",
          "type": "uint16"
        },
        {
          "internalType": "bool",
          "name": "resultsRevealed",
          "type": "bool"
        }
      ],
      "stateMutability": "view",
      "type": "function"
    },
    {
      "inputs": [],
      "name": "protocolId",
      "outputs": [
        {
          "internalType": "uint256",
          "name": "",
          "type": "uint256"
        }
      ],
      "stateMutability": "pure",
      "type": "function"
    },
    {
      "inputs": [
        {
          "internalType": "uint8",
          "name": "unitNumber",
          "type": "uint8"
        }
      ],
      "name": "registerResident",
      "outputs": [],
      "stateMutability": "nonpayable",
      "type": "function"
    },
    {
      "inputs": [
        {
          "internalType": "uint256",
          "name": "",
          "type": "uint256"
        }
      ],
      "name": "registeredResidents",
      "outputs": [
        {
          "internalType": "address",
          "name": "",
          "type": "address"
        }
      ],
      "stateMutability": "view",
      "type": "function"
    },
    {
      "inputs": [
        {
          "internalType": "address",
          "name": "",
          "type": "address"
        }
      ],
      "name": "residents",
      "outputs": [
        {
          "internalType": "bool",
          "name": "isRegistered",
          "type": "bool"
        },
        {
          "internalType": "bool",
          "name": "hasVoted",
          "type": "bool"
        },
        {
          "internalType": "uint256",
          "name": "registrationTime",
          "type": "uint256"
        },
        {
          "internalType": "euint8",
          "name": "encryptedUnit",
          "type": "bytes32"
        }
      ],
      "stateMutability": "view",
      "type": "function"
    },
    {
      "inputs": [
        {
          "internalType": "address",
          "name": "_newGateway",
          "type": "address"
        }
      ],
      "name": "setGateway",
      "outputs": [],
      "stateMutability": "nonpayable",
      "type": "function"
    },
    {
      "inputs": [
        {
          "internalType": "uint16",
          "name": "proposalId",
          "type": "uint16"
        },
        {
          "internalType": "uint8",
          "name": "voteChoice",
          "type": "uint8"
        }
      ],
      "name": "submitVote",
      "outputs": [],
      "stateMutability": "nonpayable",
      "type": "function"
    }
  ],
  "bytecode": "0x608060405234801562000010575f80fd5b5060405162002d7a38038062002d7a833981016040819052620000339162000273565b620000d9620000d3604080516080810182525f808252602082018190529181018290526060810191909152506040805160808101825273687820221192c5b662b25367f70076a37bc79b6c815273848b0066793bcc60346da1f49049357399b8d595602082015273a02cda4ca3a71d7c46997716f4283aa851c2881291810191909152731364cbbf2cdf5032c47d8226a6f6fbd2afcdacac606082015290565b6200015f565b5f8054600160a01b6001600160b01b03199091163361ffff60a01b19161717905542600155600680546001600160a01b0319166001600160a01b0383169081179091551562000158576040516001600160a01b038216905f907f68e84423772dadc3e4047f8b5bd221ddb02dc67796e7852533fd976947d86c51908290a35b506200029b565b80517f9e7b61f58c47dc699ac88507c4f5bb9f121c03808c5676a8078fe583e464970080546001600160a01b03199081166001600160a01b039384161790915560208301517f9e7b61f58c47dc699ac88507c4f5bb9f121c03808c5676a8078fe583e46497018054831691841691909117905560408301517f9e7b61f58c47dc699ac88507c4f5bb9f121c03808c5676a8078fe583e46497028054831691841691909117905560608301517f9e7b61f58c47dc699ac88507c4f5bb9f121c03808c5676a8078fe583e46497038054909216921691909117905550565b50565b5f6001600160a01b0382165b92915050565b6200025b816200023e565b81146200023b575f80fd5b80516200024a8162000250565b5f602082840312156200028857620002885f80fd5b62000294838362000266565b9392505050565b612ad180620002a95f395ff3fe608060405234801561000f575f80fd5b5060043610610153575f3560e01c806362d24d15116100bf578063b6df18b711610079578063b6df18b714610376578063bdbe4e481461037e578063c497efa3146103dc578063da1f12ab14610405578063e4d65d541461040d578063e7356cb514610457575f80fd5b806362d24d15146103065780636b528c361461032157806386871551146103345780638c82da951461034757806390646b4a1461035a578063b0091d581461036d575f80fd5b80632e9413dc116101105780632e9413dc146101f257806330c7c79d14610205578063322d5a471461021a5780633f085ee31461022d578063559239c0146102785780635da645c3146102e6575f80fd5b80630489302f146101575780630ce0ebf41461016c578063116191b61461017f578063164e6374146101a85780632b49d425146101be5780632d1a8a9c146101df575b5f80fd5b61016a610165366004611b1e565b610469565b005b61016a61017a366004611b81565b6105bc565b600654610192906001600160a01b031681565b60405161019f9190611c1e565b60405180910390f35b6101b0610728565b60405161019f929190611c7f565b5f546101d290600160a01b900461ffff1681565b60405161019f9190611cae565b61016a6101ed366004611cd0565b610782565b61016a610200366004611d06565b6109f6565b61020d610b4d565b60405161019f9190611d2b565b61016a610228366004611d39565b610bd9565b61026961023b366004611d6a565b600460209081525f928352604080842090915290825290208054600182015460029092015490919060ff1683565b60405161019f93929190611dad565b6102d7610286366004611dd5565b6001600160a01b03165f81815260036020908152604080832080546001909101548454600160a01b900461ffff1685526002845282852095855260089095019092529091205460ff91821693911690565b60405161019f93929190611df2565b6102f96102f4366004611d39565b610e7e565b60405161019f9190611e00565b61030e610ec8565b60405161019f9796959493929190611e0e565b61020d61032f366004611d39565b611048565b61016a610342366004611fa9565b611084565b610192610355366004612027565b611291565b61016a610368366004611dd5565b6112b9565b6102f960015481565b6005546102f9565b6103cb61038c366004611d39565b61ffff9081165f90815260026020526040902060060154600160301b810460ff1692818316926201000083048116926401000000009004169081831190565b60405161019f959493929190612044565b6103ef6103ea366004611d39565b611333565b60405161019f9a99989796959493929190612090565b6127116102f9565b61044761041b366004611dd5565b60036020525f908152604090208054600182015460029092015460ff8083169361010090930416919084565b60405161019f9493929190612131565b5f54610192906001600160a01b031681565b5f546001600160a01b0316331461049b5760405162461bcd60e51b81526004016104929061219c565b60405180910390fd5b61ffff82165f908152600260208190526040909120015460ff166104d15760405162461bcd60e51b8152600401610492906121d4565b61ffff82165f81815260026020819052604091829020908101805460ff1916905560068101805466ff0000000000001916600160301b17905590519091907f925e1be8d205c49e2b31dc7b09c63140e2a8d90e572aaf2ab679863105f6808f9061053c9085906121e4565b60405180910390a28261ffff167f97c8388eb77299f1ebba4ae5893e7ca4d0030932426f82892601c214e9fe16485f8060405161057a929190612212565b60405180910390a25f8054600160a01b900461ffff1690601461059c83612241565b91906101000a81548161ffff021916908361ffff16021790555050505050565b5f546001600160a01b031633146105e55760405162461bcd60e51b81526004016104929061219c565b601881101580156105f7575060a88111155b6106135760405162461bcd60e51b815260040161049290612291565b5f8054600160a01b900461ffff168152600260208190526040909120015460ff16156106515760405162461bcd60e51b8152600401610492906122d3565b5f61065e82610e106122e3565b90505f61066b82426122fa565b5f8054600160a01b900461ffff1681526002602052604090209091508061069287826123e2565b50600181016106a186826123e2565b5060028101805460ff19166001179055426003820155600481018290556005810183905560068101805466ffffffffffffff191690555f54604051600160a01b90910461ffff16907f19202c5d2c89fd93263846ac202f6266ed5a37fa4ad14ff31c2ae3e2cda4a99a90610718908990869061249e565b60405180910390a2505050505050565b6060806040518060400160405280601881526020017f322e302e312d666845564d2d76302e362e302d464958454400000000000000008152506040518060800160405280604c8152602001612a50604c9139915091509091565b335f9081526003602052604090205460ff166107b05760405162461bcd60e51b8152600401610492906124f0565b61ffff82165f9081526002602081905260409091200154829060ff166107e85760405162461bcd60e51b8152600401610492906121d4565b61ffff81165f9081526002602052604090206004015442111561081d5760405162461bcd60e51b815260040161049290612528565b60ff8216158061083057508160ff166001145b61084c5760405162461bcd60e51b81526004016104929061256a565b61ffff83165f90815260046020908152604080832033845290915290206002015460ff161561088d5760405162461bcd60e51b8152600401610492906125ac565b61ffff83165f90815260026020908152604080832033845260080190915290205460ff16156108ce5760405162461bcd60e51b8152600401610492906125ac565b5f6108d8836114a4565b60408051606081018252828152426020808301918252600183850181815261ffff808c165f81815260048652888120338083529087528982209851895596518886015592516002978801805491151560ff199283161790558184528786528884208785526008810187529884208054909116851790559584526007870180549384018155825292812090910180546001600160a01b031916909317909255918152600690920180549394509216919061099083612241565b91906101000a81548161ffff021916908361ffff160217905550506109b4816114b3565b506109bf81336114c2565b5060405161ffff85169033907fe26d6859f9e30471a22dcd8ced1b5793cd16137994a453a593ee70aee60cda92905f90a350505050565b335f9081526003602052604090205460ff1615610a255760405162461bcd60e51b8152600401610492906125e3565b5f8160ff16118015610a3b575060c88160ff1611155b610a575760405162461bcd60e51b81526004016104929061261b565b5f610a61826114a4565b6040805160808101825260018082525f6020808401828152428587019081526060860188815233808652600390945296842095518654925161ffff1990931690151561ff0019161761010092151592909202919091178555518484015593516002909301929092556005805491820181559091527f036b6384b5eca791c62761152d0c79bb0604c104a5fb6f4eb0703f3154bb3db00180546001600160a01b03191690911790559050610b13816114b3565b50610b1e81336114c2565b5060405133907fcf0b6369d76a8b3e6b0cc55ae93e538e0bdd0f5fed6455b9d0468cc5bcbfcf34905f90a25050565b6006545f906001600160a01b0316610b655750600190565b600654604051635cf91eb960e11b81526001600160a01b039091169063b9f23d7290610b95903090600401611c1e565b602060405180830381865afa158015610bb0573d5f803e3d5ffd5b505050506040513d601f19601f82011682018060405250810190610bd4919061263e565b905090565b5f546001600160a01b03163314610c025760405162461bcd60e51b81526004016104929061219c565b61ffff81165f9081526002602052604090206004015481904211610c385760405162461bcd60e51b815260040161049290612683565b61ffff81165f90815260026020526040902060060154600160301b900460ff1615610c755760405162461bcd60e51b8152600401610492906126c5565b61ffff82165f908152600260208190526040909120015460ff16610cab5760405162461bcd60e51b8152600401610492906121d4565b61ffff8083165f9081526002602052604090206006015416610cdf5760405162461bcd60e51b8152600401610492906126fd565b6006546001600160a01b031615610d7b57600654604051638d99b79160e01b81526001600160a01b0390911690638d99b79190610d20903090600401611c1e565b602060405180830381865afa158015610d3b573d5f803e3d5ffd5b505050506040513d601f19601f82011682018060405250810190610d5f919061263e565b610d7b5760405162461bcd60e51b81526004016104929061270d565b61ffff82165f9081526002602081905260408220908101805460ff19169055600781015490919067ffffffffffffffff811115610dba57610dba611a35565b604051908082528060200260200182016040528015610de3578160200160208202803683370190505b5090505f5b6007830154811015610e65575f836007018281548110610e0a57610e0a612758565b5f91825260208083209091015461ffff891683526004825260408084206001600160a01b0390921680855291909252912054909150838381518110610e5157610e51612758565b602090810291909101015250600101610de8565b50610e7781638687155160e01b6114d4565b5050505050565b61ffff81165f908152600260205260408120600401544210610ea157505f919050565b61ffff82165f90815260026020526040902060040154610ec290429061276c565b92915050565b5f805461ffff600160a01b9091048116808352600260208190526040842090810154600382015460048301546006840154845460609788978a97889788978897929693958795600187019560ff90941694929316908690610f2890612321565b80601f0160208091040260200160405190810160405280929190818152602001828054610f5490612321565b8015610f9f5780601f10610f7657610100808354040283529160200191610f9f565b820191905f5260205f20905b815481529060010190602001808311610f8257829003601f168201915b50505050509550848054610fb290612321565b80601f0160208091040260200160405190810160405280929190818152602001828054610fde90612321565b80156110295780601f1061100057610100808354040283529160200191611029565b820191905f5260205f20905b81548152906001019060200180831161100c57829003601f168201915b5050505050945097509750975097509750975097505090919293949596565b61ffff81165f9081526002602081905260408220015460ff168015610ec257505061ffff165f9081526002602052604090206004015442111590565b5f8260405160200161109691906127d7565b60405160208183030381529060405290505f826040516020016110b9919061284e565b60405160208183030381529060405290506110d58583836114e7565b5f8054600160a01b900461ffff1681526002602052604081209080805b875181101561116a5787818151811061110d5761110d612758565b602002602001015160ff16600103611131578261112981612241565b935050611162565b87818151811061114357611143612758565b602002602001015160ff165f03611162578161115e81612241565b9250505b6001016110f2565b50600683018054600160301b65ffffffff0000199091166201000061ffff86811691820265ffff000000001916929092176401000000008684169081029190911766ff0000000000001916939093179093555f546040519290931192600160a01b900416907f97c8388eb77299f1ebba4ae5893e7ca4d0030932426f82892601c214e9fe1648906111fe908690869061285f565b60405180910390a25f60149054906101000a900461ffff1661ffff167f442fa70cca1b8a438745c1a975d44456f5b7cdd2db4536c6dc2cb9a0d3f138aa826040516112499190611d2b565b60405180910390a25f8054600160a01b900461ffff1690601461126b83612241565b91906101000a81548161ffff021916908361ffff16021790555050505050505050505050565b600581815481106112a0575f80fd5b5f918252602090912001546001600160a01b0316905081565b5f546001600160a01b031633146112e25760405162461bcd60e51b81526004016104929061219c565b600680546001600160a01b038381166001600160a01b0319831681179093556040519116919082907f68e84423772dadc3e4047f8b5bd221ddb02dc67796e7852533fd976947d86c51905f90a35050565b60026020525f908152604090208054819061134d90612321565b80601f016020809104026020016040519081016040528092919081815260200182805461137990612321565b80156113c45780601f1061139b576101008083540402835291602001916113c4565b820191905f5260205f20905b8154815290600101906020018083116113a757829003601f168201915b5050505050908060010180546113d990612321565b80601f016020809104026020016040519081016040528092919081815260200182805461140590612321565b80156114505780601f1061142757610100808354040283529160200191611450565b820191905f5260205f20905b81548152906001019060200180831161143357829003601f168201915b5050506002840154600385015460048601546005870154600690970154959660ff938416969295509093509161ffff80831692620100008104821692640100000000820490921691600160301b909104168a565b5f610ec28260ff166002611550565b5f6114be82306115fa565b5090565b5f6114cd83836115fa565b5090919050565b5f6114e083835f61166b565b9392505050565b5f6114f184611786565b90505f6114ff828585611857565b90508061151f5760405163cf6c44e960e01b815260040160405180910390fd5b60405185907f1af0453083661051f6e56e5c070792320652e612154bf9af8637bb1e7655b99d905f90a25050505050565b7f9e7b61f58c47dc699ac88507c4f5bb9f121c03808c5676a8078fe583e464970154604051639cd07acb60e01b81525f915f80516020612a30833981519152916001600160a01b0390911690639cd07acb906115b290879087906004016128bb565b6020604051808303815f875af11580156115ce573d5f803e3d5ffd5b505050506040513d601f19601f820116820180604052508101906115f291906128e1565b949350505050565b5f80516020612a308339815191528054604051635ca4b5b160e11b81526001600160a01b039091169063b9496b629061163990869086906004016128fe565b5f604051808303815f87803b158015611650575f80fd5b505af1158015611662573d5f803e3d5ffd5b50505050505050565b7f878245876662ba28a480c5ea71726db859fb50222b0a3d7cbbc21cfa336faf0080545f80516020612a308339815191528054604051637d6e912360e11b81529293926001600160a01b039091169063fadd2246906116ce90899060040161295e565b5f604051808303815f87803b1580156116e5575f80fd5b505af11580156116f7573d5f803e3d5ffd5b5050506002820154604051633263b83b60e01b81526001600160a01b039091169150633263b83b9086906117339087908b908b9060040161297f565b5f604051808303818588803b15801561174a575f80fd5b505af115801561175c573d5f803e3d5ffd5b505050505061176b8387611930565b8154825f611778836129ae565b919050555050509392505050565b5f8181527f878245876662ba28a480c5ea71726db859fb50222b0a3d7cbbc21cfa336faf0160205260408120546060917f878245876662ba28a480c5ea71726db859fb50222b0a3d7cbbc21cfa336faf009190036117f75760405163d66ca67560e01b815260040160405180910390fd5b5f8381526001820160209081526040918290208054835181840281018401909452808452909183018282801561184a57602002820191905f5260205f20905b815481526020019060010190808311611836575b5050505050915050919050565b5f808351602061186791906122fa565b6118729060206122fa565b90505f84826040516020016118889291906129e0565b60405160208183030381529060405290505f6118ae5f80516020612a3083398151915290565b60038101546040516378542ead60e01b81529192506001600160a01b0316906378542ead906118e5908a9086908a906004016129f6565b6020604051808303815f875af1158015611901573d5f803e3d5ffd5b505050506040513d601f19601f82011682018060405250810190611925919061263e565b979650505050505050565b5f8281527f878245876662ba28a480c5ea71726db859fb50222b0a3d7cbbc21cfa336faf0160205260409020547f878245876662ba28a480c5ea71726db859fb50222b0a3d7cbbc21cfa336faf00901561199d57604051633f06d22b60e01b815260040160405180910390fd5b5f838152600182016020908152604090912083516119bd928501906119c3565b50505050565b828054828255905f5260205f209081019282156119fc579160200282015b828111156119fc5782518255916020019190600101906119e1565b506114be9291505b808211156114be575f8155600101611a04565b61ffff81165b8114611a27575f80fd5b50565b8035610ec281611a17565b634e487b7160e01b5f52604160045260245ffd5b601f19601f830116810181811067ffffffffffffffff82111715611a6f57611a6f611a35565b6040525050565b5f611a8060405190565b9050611a8c8282611a49565b919050565b5f67ffffffffffffffff821115611aaa57611aaa611a35565b601f19601f8301165b60200192915050565b82818337505f910152565b5f611ad9611ad484611a91565b611a76565b9050828152838383011115611aef57611aef5f80fd5b6114e0836020830184611abc565b5f82601f830112611b0f57611b0f5f80fd5b6114e083833560208501611ac7565b5f8060408385031215611b3257611b325f80fd5b611b3c8484611a2a565b9150602083013567ffffffffffffffff811115611b5a57611b5a5f80fd5b611b6685828601611afd565b9150509250929050565b80611a1d565b8035610ec281611b70565b5f805f60608486031215611b9657611b965f80fd5b833567ffffffffffffffff811115611baf57611baf5f80fd5b611bbb86828701611afd565b935050602084013567ffffffffffffffff811115611bda57611bda5f80fd5b611be686828701611afd565b925050611bf68560408601611b76565b90509250925092565b5f6001600160a01b038216610ec2565b611c1881611bff565b82525050565b60208101610ec28284611c0f565b5f5b83811015611c46578181015183820152602001611c2e565b50505f910152565b5f611c57825190565b808452602084019350611c6e818560208601611c2c565b601f01601f19169290920192915050565b60408082528101611c908185611c4e565b905081810360208301526115f28184611c4e565b61ffff8116611c18565b60208101610ec28284611ca4565b60ff8116611a1d565b8035610ec281611cbc565b5f8060408385031215611ce457611ce45f80fd5b611cee8484611a2a565b9150611cfd8460208501611cc5565b90509250929050565b5f60208284031215611d1957611d195f80fd5b6114e08383611cc5565b801515611c18565b60208101610ec28284611d23565b5f60208284031215611d4c57611d4c5f80fd5b6114e08383611a2a565b611a1d81611bff565b8035610ec281611d56565b5f8060408385031215611d7e57611d7e5f80fd5b611d888484611a2a565b9150611cfd8460208501611d5f565b5f81610ec2565b611c1881611d97565b80611c18565b60608101611dbb8286611d9e565b611dc86020830185611da7565b6115f26040830184611d23565b5f60208284031215611de857611de85f80fd5b6114e08383611d5f565b60608101611dbb8286611d23565b60208101610ec28284611da7565b60e08101611e1c828a611ca4565b8181036020830152611e2e8189611c4e565b90508181036040830152611e428188611c4e565b9050611e516060830187611d23565b611e5e6080830186611da7565b611e6b60a0830185611da7565b611e7860c0830184611ca4565b98975050505050505050565b5f67ffffffffffffffff821115611e9d57611e9d611a35565b5060209081020190565b5f611eb4611ad484611e84565b83815290506020808201908402830185811115611ed257611ed25f80fd5b835b81811015611ef457611ee68782611cc5565b835260209283019201611ed4565b5050509392505050565b5f82601f830112611f1057611f105f80fd5b6114e083833560208501611ea7565b5f611f2c611ad484611e84565b83815290506020808201908402830185811115611f4a57611f4a5f80fd5b835b81811015611ef457803567ffffffffffffffff811115611f6d57611f6d5f80fd5b611f7988828801611afd565b84525060209283019201611f4c565b5f82601f830112611f9a57611f9a5f80fd5b6114e083833560208501611f1f565b5f805f60608486031215611fbe57611fbe5f80fd5b611fc88585611b76565b9250602084013567ffffffffffffffff811115611fe657611fe65f80fd5b611ff286828701611efe565b925050604084013567ffffffffffffffff811115612011576120115f80fd5b61201d86828701611f88565b9150509250925092565b5f6020828403121561203a5761203a5f80fd5b6114e08383611b76565b60a081016120528288611d23565b61205f6020830187611ca4565b61206c6040830186611ca4565b6120796060830185611ca4565b6120866080830184611d23565b9695505050505050565b61014080825281016120a2818d611c4e565b905081810360208301526120b6818c611c4e565b90506120c5604083018b611d23565b6120d2606083018a611da7565b6120df6080830189611da7565b6120ec60a0830188611da7565b6120f960c0830187611ca4565b61210660e0830186611ca4565b612114610100830185611ca4565b612122610120830184611d23565b9b9a5050505050505050505050565b6080810161213f8287611d23565b61214c6020830186611d23565b6121596040830185611da7565b6121666060830184611d9e565b95945050505050565b6016815260208101752737ba1030baba3437b934bd32b21036b0b730b3b2b960511b815290505b60200190565b60208082528101610ec28161216f565b60138152602081017250726f706f73616c206e6f742061637469766560681b81529050612196565b60208082528101610ec2816121ac565b602080825281016114e08184611c4e565b5f610ec282612202565b90565b61ffff1690565b611c18816121f5565b604081016122208285612209565b6114e06020830184612209565b634e487b7160e01b5f52601160045260245ffd5b61ffff165f61fffe1982016122585761225861222d565b5060010190565b60198152602081017f4475726174696f6e206d75737420626520312d3720646179730000000000000081529050612196565b60208082528101610ec28161225f565b601e8152602081017f50726576696f75732070726f706f73616c207374696c6c20616374697665000081529050612196565b60208082528101610ec2816122a1565b8181028115828204841417610ec257610ec261222d565b80820180821115610ec257610ec261222d565b634e487b7160e01b5f52602260045260245ffd5b60028104600182168061233557607f821691505b6020821081036123475761234761230d565b50919050565b5f610ec26121ff8381565b6123618361234d565b81545f1960089490940293841b1916921b91909117905550565b5f612387818484612358565b505050565b818110156123a65761239e5f8261237b565b60010161238c565b5050565b601f821115612387575f818152602090206020601f850104810160208510156123d05750805b610e776020601f86010483018261238c565b815167ffffffffffffffff8111156123fc576123fc611a35565b6124068254612321565b6124118282856123aa565b506020601f821160018114612444575f831561242d5750848201515b5f19600885021c1981166002850217855550610e77565b5f84815260208120601f198516915b828110156124735787850151825560209485019460019092019101612453565b508482101561248f57838701515f19601f87166008021c191681555b50505050600202600101905550565b604080825281016124af8185611c4e565b90506114e06020830184611da7565b60198152602081017f4e6f7420612072656769737465726564207265736964656e740000000000000081529050612196565b60208082528101610ec2816124be565b601381526020810172159bdd1a5b99c81c195c9a5bd908195b991959606a1b81529050612196565b60208082528101610ec281612500565b601e8152602081017f566f7465206d757374206265203020284e6f29206f722031202859657329000081529050612196565b60208082528101610ec281612538565b601e8152602081017f416c726561647920766f746564206f6e20746869732070726f706f73616c000081529050612196565b60208082528101610ec28161257a565b601281526020810171105b1c9958591e481c9959da5cdd195c995960721b81529050612196565b60208082528101610ec2816125bc565b60138152602081017224b73b30b634b2103ab734ba10373ab6b132b960691b81529050612196565b60208082528101610ec2816125f3565b801515611a1d565b8051610ec28161262b565b5f60208284031215612651576126515f80fd5b6114e08383612633565b601381526020810172566f74696e67207374696c6c2061637469766560681b81529050612196565b60208082528101610ec28161265b565b60188152602081017f526573756c747320616c72656164792072657665616c6564000000000000000081529050612196565b60208082528101610ec281612693565b601381526020810172139bc81d9bdd195cc81d1bc8191958dc9e5c1d606a1b81529050612196565b60208082528101610ec2816126d5565b60208082528101610ec281602781527f476174657761793a2044656372797074696f6e2072657175657374206e6f7420602082015266185b1b1bddd95960ca1b604082015260600190565b634e487b7160e01b5f52603260045260245ffd5b81810381811115610ec257610ec261222d565b60ff8116611c18565b612792828261277f565b5060200190565b5f6127a2825190565b602083015f5b828110156127cd5781516127bc8782612788565b9650506020820191506001016127a8565b5093949350505050565b610ec28183612799565b5f6114e08383611c4e565b5f6127f5825190565b8084526020840193508360208202850161280f8560200190565b5f5b84811015612842578383038852815161282a84826127e1565b93505060208201602098909801979150600101612811565b50909695505050505050565b602080825281016114e081846127ec565b6040810161286d8285611ca4565b6114e06020830184611ca4565b634e487b7160e01b5f52602160045260245ffd5b60548110611a2757611a2761287a565b80611a8c8161288e565b5f610ec28261289e565b611c18816128a8565b604081016128c98285611da7565b6114e060208301846128b2565b8051610ec281611b70565b5f602082840312156128f4576128f45f80fd5b6114e083836128d6565b6040810161290c8285611da7565b6114e06020830184611c0f565b6127928282611da7565b5f61292c825190565b80845260209384019383015f5b828110156127cd57815161294d8782612919565b965050602082019150600101612939565b602080825281016114e08184612923565b6001600160e01b03198116611c18565b6060810161298d8286611da7565b818103602083015261299f8185612923565b90506115f2604083018461296f565b5f600182016122585761225861222d565b5f6129c8825190565b6129d6818560208601611c2c565b9290920192915050565b6129ea81846129bf565b9050611ab38183611da7565b60608082528101612a078186612923565b90508181036020830152612a1b8185611c4e565b905081810360408301526121668184611c4e56fe9e7b61f58c47dc699ac88507c4f5bb9f121c03808c5676a8078fe583e46497004175746f2052652d72616e646f6d697a6174696f6e207c204761746577617920496e746567726174696f6e207c20466f72636520436c6f736520456d657267656e63792046756e6374696f6ea2646970667358221220e022625fdf9ed79a4de043b1f03daa1d45279dcad3617d790d1a2203881eb5fe64736f6c63430008180033",
  "linkReferences": {},
  "deployedLinkReferences": {}
}