{
  "_format": "hh-sol-artifact-1",
  "contractName": "AnonymousPropertyVotingFixed",
  "sourceName": "contracts/AnonymousPropertyVotingFixed.sol",
  "abi": [
    {
      "inputs": [],
      "stateMutability": "nonpayable",
      "type": "constructor"
    },
    {
      "inputs": [],
      "name": "HandlesAlreadySavedForRequestID",
      "type": "error"
    },
    {
      "inputs": [],
      "name": "InvalidKMSSignatures",
      "type": "error"
    },
    {
      "inputs": [],
      "name": "NoHandleFoundForRequestID",
      "type": "error"
    },
    {
      "anonymous": false,
      "inputs": [
        {
          "indexed": true,
          "internalType": "uint256",
          "name": "requestID",
          "type": "uint256"
        }
      ],
      "name": "DecryptionFulfilled",
      "type": "event"
    },
    {
      "anonymous": false,
      "inputs": [
        {
          "indexed": true,
          "internalType": "uint16",
          "name": "proposalId",
          "type": "uint16"
        },
        {
          "indexed": false,
          "internalType": "string",
          "name": "title",
          "type": "string"
        },
        {
          "indexed": false,
          "internalType": "uint256",
          "name": "endTime",
          "type": "uint256"
        }
      ],
      "name": "ProposalCreated",
      "type": "event"
    },
    {
      "anonymous": false,
      "inputs": [
        {
          "indexed": true,
          "internalType": "uint16",
          "name": "proposalId",
          "type": "uint16"
        },
        {
          "indexed": false,
          "internalType": "uint16",
          "name": "yesVotes",
          "type": "uint16"
        },
        {
          "indexed": false,
          "internalType": "uint16",
          "name": "noVotes",
          "type": "uint16"
        }
      ],
      "name": "ProposalEnded",
      "type": "event"
    },
    {
      "anonymous": false,
      "inputs": [
        {
          "indexed": true,
          "internalType": "address",
          "name": "resident",
          "type": "address"
        }
      ],
      "name": "ResidentRegistered",
      "type": "event"
    },
    {
      "anonymous": false,
      "inputs": [
        {
          "indexed": true,
          "internalType": "uint16",
          "name": "proposalId",
          "type": "uint16"
        },
        {
          "indexed": false,
          "internalType": "bool",
          "name": "approved",
          "type": "bool"
        }
      ],
      "name": "ResultsRevealed",
      "type": "event"
    },
    {
      "anonymous": false,
      "inputs": [
        {
          "indexed": true,
          "internalType": "address",
          "name": "voter",
          "type": "address"
        },
        {
          "indexed": true,
          "internalType": "uint16",
          "name": "proposalId",
          "type": "uint16"
        }
      ],
      "name": "VoteSubmitted",
      "type": "event"
    },
    {
      "inputs": [
        {
          "internalType": "string",
          "name": "title",
          "type": "string"
        },
        {
          "internalType": "string",
          "name": "description",
          "type": "string"
        },
        {
          "internalType": "uint256",
          "name": "votingDurationHours",
          "type": "uint256"
        }
      ],
      "name": "createProposal",
      "outputs": [],
      "stateMutability": "nonpayable",
      "type": "function"
    },
    {
      "inputs": [],
      "name": "currentProposal",
      "outputs": [
        {
          "internalType": "uint16",
          "name": "",
          "type": "uint16"
        }
      ],
      "stateMutability": "view",
      "type": "function"
    },
    {
      "inputs": [
        {
          "internalType": "uint16",
          "name": "proposalId",
          "type": "uint16"
        }
      ],
      "name": "endProposal",
      "outputs": [],
      "stateMutability": "nonpayable",
      "type": "function"
    },
    {
      "inputs": [],
      "name": "getCurrentProposalInfo",
      "outputs": [
        {
          "internalType": "uint16",
          "name": "proposalId",
          "type": "uint16"
        },
        {
          "internalType": "string",
          "name": "title",
          "type": "string"
        },
        {
          "internalType": "string",
          "name": "description",
          "type": "string"
        },
        {
          "internalType": "bool",
          "name": "isActive",
          "type": "bool"
        },
        {
          "internalType": "uint256",
          "name": "startTime",
          "type": "uint256"
        },
        {
          "internalType": "uint256",
          "name": "endTime",
          "type": "uint256"
        },
        {
          "internalType": "uint16",
          "name": "totalVotes",
          "type": "uint16"
        }
      ],
      "stateMutability": "view",
      "type": "function"
    },
    {
      "inputs": [
        {
          "internalType": "uint16",
          "name": "proposalId",
          "type": "uint16"
        }
      ],
      "name": "getProposalResults",
      "outputs": [
        {
          "internalType": "bool",
          "name": "resultsRevealed",
          "type": "bool"
        },
        {
          "internalType": "uint16",
          "name": "totalVotes",
          "type": "uint16"
        },
        {
          "internalType": "uint16",
          "name": "yesVotes",
          "type": "uint16"
        },
        {
          "internalType": "uint16",
          "name": "noVotes",
          "type": "uint16"
        },
        {
          "internalType": "bool",
          "name": "approved",
          "type": "bool"
        }
      ],
      "stateMutability": "view",
      "type": "function"
    },
    {
      "inputs": [
        {
          "internalType": "address",
          "name": "resident",
          "type": "address"
        }
      ],
      "name": "getResidentStatus",
      "outputs": [
        {
          "internalType": "bool",
          "name": "isRegistered",
          "type": "bool"
        },
        {
          "internalType": "uint256",
          "name": "registrationTime",
          "type": "uint256"
        },
        {
          "internalType": "bool",
          "name": "hasVotedCurrentProposal",
          "type": "bool"
        }
      ],
      "stateMutability": "view",
      "type": "function"
    },
    {
      "inputs": [],
      "name": "getTotalResidents",
      "outputs": [
        {
          "internalType": "uint256",
          "name": "",
          "type": "uint256"
        }
      ],
      "stateMutability": "view",
      "type": "function"
    },
    {
      "inputs": [
        {
          "internalType": "uint16",
          "name": "proposalId",
          "type": "uint16"
        }
      ],
      "name": "getVotingTimeLeft",
      "outputs": [
        {
          "internalType": "uint256",
          "name": "",
          "type": "uint256"
        }
      ],
      "stateMutability": "view",
      "type": "function"
    },
    {
      "inputs": [
        {
          "internalType": "uint16",
          "name": "proposalId",
          "type": "uint16"
        }
      ],
      "name": "isVotingActive",
      "outputs": [
        {
          "internalType": "bool",
          "name": "",
          "type": "bool"
        }
      ],
      "stateMutability": "view",
      "type": "function"
    },
    {
      "inputs": [
        {
          "internalType": "uint256",
          "name": "requestId",
          "type": "uint256"
        },
        {
          "internalType": "uint8[]",
          "name": "decryptedVotes",
          "type": "uint8[]"
        },
        {
          "internalType": "bytes[]",
          "name": "signatures",
          "type": "bytes[]"
        }
      ],
      "name": "processVoteResults",
      "outputs": [],
      "stateMutability": "nonpayable",
      "type": "function"
    },
    {
      "inputs": [],
      "name": "propertyManager",
      "outputs": [
        {
          "internalType": "address",
          "name": "",
          "type": "address"
        }
      ],
      "stateMutability": "view",
      "type": "function"
    },
    {
      "inputs": [],
      "name": "proposalCreationTime",
      "outputs": [
        {
          "internalType": "uint256",
          "name": "",
          "type": "uint256"
        }
      ],
      "stateMutability": "view",
      "type": "function"
    },
    {
      "inputs": [
        {
          "internalType": "uint16",
          "name": "",
          "type": "uint16"
        },
        {
          "internalType": "address",
          "name": "",
          "type": "address"
        }
      ],
      "name": "proposalVotes",
      "outputs": [
        {
          "internalType": "euint8",
          "name": "vote",
          "type": "bytes32"
        },
        {
          "internalType": "uint256",
          "name": "timestamp",
          "type": "uint256"
        },
        {
          "internalType": "bool",
          "name": "submitted",
          "type": "bool"
        }
      ],
      "stateMutability": "view",
      "type": "function"
    },
    {
      "inputs": [
        {
          "internalType": "uint16",
          "name": "",
          "type": "uint16"
        }
      ],
      "name": "proposals",
      "outputs": [
        {
          "internalType": "string",
          "name": "title",
          "type": "string"
        },
        {
          "internalType": "string",
          "name": "description",
          "type": "string"
        },
        {
          "internalType": "bool",
          "name": "isActive",
          "type": "bool"
        },
        {
          "internalType": "uint256",
          "name": "startTime",
          "type": "uint256"
        },
        {
          "internalType": "uint256",
          "name": "endTime",
          "type": "uint256"
        },
        {
          "internalType": "uint256",
          "name": "votingPeriod",
          "type": "uint256"
        },
        {
          "internalType": "uint16",
          "name": "totalVotes",
          "type": "uint16"
        },
        {
          "internalType": "uint16",
          "name": "yesVotes",
          "type": "uint16"
        },
        {
          "internalType": "uint16",
          "name": "noVotes",
          "type": "uint16"
        },
        {
          "internalType": "bool",
          "name": "resultsRevealed",
          "type": "bool"
        }
      ],
      "stateMutability": "view",
      "type": "function"
    },
    {
      "inputs": [],
      "name": "protocolId",
      "outputs": [
        {
          "internalType": "uint256",
          "name": "",
          "type": "uint256"
        }
      ],
      "stateMutability": "pure",
      "type": "function"
    },
    {
      "inputs": [
        {
          "internalType": "uint8",
          "name": "unitNumber",
          "type": "uint8"
        }
      ],
      "name": "registerResident",
      "outputs": [],
      "stateMutability": "nonpayable",
      "type": "function"
    },
    {
      "inputs": [
        {
          "internalType": "uint256",
          "name": "",
          "type": "uint256"
        }
      ],
      "name": "registeredResidents",
      "outputs": [
        {
          "internalType": "address",
          "name": "",
          "type": "address"
        }
      ],
      "stateMutability": "view",
      "type": "function"
    },
    {
      "inputs": [
        {
          "internalType": "address",
          "name": "",
          "type": "address"
        }
      ],
      "name": "residents",
      "outputs": [
        {
          "internalType": "bool",
          "name": "isRegistered",
          "type": "bool"
        },
        {
          "internalType": "bool",
          "name": "hasVoted",
          "type": "bool"
        },
        {
          "internalType": "uint256",
          "name": "registrationTime",
          "type": "uint256"
        },
        {
          "internalType": "euint8",
          "name": "encryptedUnit",
          "type": "bytes32"
        }
      ],
      "stateMutability": "view",
      "type": "function"
    },
    {
      "inputs": [
        {
          "internalType": "uint16",
          "name": "proposalId",
          "type": "uint16"
        },
        {
          "internalType": "uint8",
          "name": "voteChoice",
          "type": "uint8"
        }
      ],
      "name": "submitVote",
      "outputs": [],
      "stateMutability": "nonpayable",
      "type": "function"
    }
  ],
  "bytecode": "0x608060405234801561000f575f80fd5b5061018a6100ae604080516080810182525f808252602082018190529181018290526060810191909152506040805160808101825273687820221192c5b662b25367f70076a37bc79b6c815273848b0066793bcc60346da1f49049357399b8d595602082015273a02cda4ca3a71d7c46997716f4283aa851c2881291810191909152731364cbbf2cdf5032c47d8226a6f6fbd2afcdacac606082015290565b80517f9e7b61f58c47dc699ac88507c4f5bb9f121c03808c5676a8078fe583e464970080546001600160a01b03199081166001600160a01b039384161790915560208301517f9e7b61f58c47dc699ac88507c4f5bb9f121c03808c5676a8078fe583e46497018054831691841691909117905560408301517f9e7b61f58c47dc699ac88507c4f5bb9f121c03808c5676a8078fe583e46497028054831691841691909117905560608301517f9e7b61f58c47dc699ac88507c4f5bb9f121c03808c5676a8078fe583e46497038054909216921691909117905550565b5f805461ffff60a01b1933166001600160b01b031990911617600160a01b1790554260015561263d806101bc5f395ff3fe608060405234801561000f575f80fd5b506004361061011c575f3560e01c80636b528c36116100a9578063bdbe4e481161006e578063bdbe4e48146102f0578063c497efa31461034e578063da1f12ab14610377578063e4d65d541461037f578063e7356cb5146103c9575f80fd5b80636b528c361461028c57806386871551146102ac5780638c82da95146102bf578063b0091d58146102df578063b6df18b7146102e8575f80fd5b8063322d5a47116100ef578063322d5a47146101855780633f085ee314610198578063559239c0146101e35780635da645c31461025157806362d24d1514610271575f80fd5b80630ce0ebf4146101205780632b49d425146101355780632d1a8a9c1461015f5780632e9413dc14610172575b5f80fd5b61013361012e3660046117ec565b6103db565b005b5f5461014990600160a01b900461ffff1681565b6040516101569190611876565b60405180910390f35b61013361016d3660046118ad565b610550565b6101336101803660046118e3565b6107c4565b610133610193366004611900565b61091b565b6101d46101a6366004611941565b600460209081525f928352604080842090915290825290208054600182015460029092015490919060ff1683565b6040516101569392919061198c565b6102426101f13660046119b4565b6001600160a01b03165f81815260036020908152604080832080546001909101548454600160a01b900461ffff1685526002845282852095855260089095019092529091205460ff91821693911690565b604051610156939291906119d1565b61026461025f366004611900565b610bca565b60405161015691906119df565b610279610c14565b6040516101569796959493929190611a40565b61029f61029a366004611900565b610d94565b6040516101569190611ab6565b6101336102ba366004611be9565b610dd0565b6102d26102cd366004611c67565b610fdd565b6040516101569190611c8d565b61026460015481565b600554610264565b61033d6102fe366004611900565b61ffff9081165f90815260026020526040902060060154600160301b810460ff1692818316926201000083048116926401000000009004169081831190565b604051610156959493929190611c9b565b61036161035c366004611900565b611005565b6040516101569a99989796959493929190611ce7565b612711610264565b6103b961038d3660046119b4565b60036020525f908152604090208054600182015460029092015460ff8083169361010090930416919084565b6040516101569493929190611d88565b5f546102d2906001600160a01b031681565b5f546001600160a01b0316331461040d5760405162461bcd60e51b815260040161040490611df3565b60405180910390fd5b6018811015801561041f575060a88111155b61043b5760405162461bcd60e51b815260040161040490611e35565b5f8054600160a01b900461ffff168152600260208190526040909120015460ff16156104795760405162461bcd60e51b815260040161040490611e77565b5f61048682610e10611e9b565b90505f6104938242611eb2565b5f8054600160a01b900461ffff168152600260205260409020909150806104ba8782611f98565b50600181016104c98682611f98565b5060028101805460ff19166001179055426003820155600481018290556005810183905560068101805466ffffffffffffff191690555f54604051600160a01b90910461ffff16907f19202c5d2c89fd93263846ac202f6266ed5a37fa4ad14ff31c2ae3e2cda4a99a906105409089908690612054565b60405180910390a2505050505050565b335f9081526003602052604090205460ff1661057e5760405162461bcd60e51b8152600401610404906120a6565b61ffff82165f9081526002602081905260409091200154829060ff166105b65760405162461bcd60e51b8152600401610404906120de565b61ffff81165f908152600260205260409020600401544211156105eb5760405162461bcd60e51b815260040161040490612116565b60ff821615806105fe57508160ff166001145b61061a5760405162461bcd60e51b815260040161040490612158565b61ffff83165f90815260046020908152604080832033845290915290206002015460ff161561065b5760405162461bcd60e51b81526004016104049061219a565b61ffff83165f90815260026020908152604080832033845260080190915290205460ff161561069c5760405162461bcd60e51b81526004016104049061219a565b5f6106a683611176565b60408051606081018252828152426020808301918252600183850181815261ffff808c165f81815260048652888120338083529087528982209851895596518886015592516002978801805491151560ff199283161790558184528786528884208785526008810187529884208054909116851790559584526007870180549384018155825292812090910180546001600160a01b031916909317909255918152600690920180549394509216919061075e836121aa565b91906101000a81548161ffff021916908361ffff1602179055505061078281611185565b5061078d8133611194565b5060405161ffff85169033907fe26d6859f9e30471a22dcd8ced1b5793cd16137994a453a593ee70aee60cda92905f90a350505050565b335f9081526003602052604090205460ff16156107f35760405162461bcd60e51b8152600401610404906121ef565b5f8160ff16118015610809575060c88160ff1611155b6108255760405162461bcd60e51b815260040161040490612227565b5f61082f82611176565b6040805160808101825260018082525f6020808401828152428587019081526060860188815233808652600390945296842095518654925161ffff1990931690151561ff0019161761010092151592909202919091178555518484015593516002909301929092556005805491820181559091527f036b6384b5eca791c62761152d0c79bb0604c104a5fb6f4eb0703f3154bb3db00180546001600160a01b031916909117905590506108e181611185565b506108ec8133611194565b5060405133907fcf0b6369d76a8b3e6b0cc55ae93e538e0bdd0f5fed6455b9d0468cc5bcbfcf34905f90a25050565b5f546001600160a01b031633146109445760405162461bcd60e51b815260040161040490611df3565b61ffff81165f908152600260205260409020600401548190421161097a5760405162461bcd60e51b81526004016104049061225f565b61ffff81165f90815260026020526040902060060154600160301b900460ff16156109b75760405162461bcd60e51b8152600401610404906122a1565b61ffff82165f908152600260208190526040909120015460ff166109ed5760405162461bcd60e51b8152600401610404906120de565b61ffff82165f9081526002602081905260408220908101805460ff191690556007810154909103610ae65760068101805466ffffffffff00001916600160301b17905560405161ffff8416907f97c8388eb77299f1ebba4ae5893e7ca4d0030932426f82892601c214e9fe164890610a68905f9081906122c5565b60405180910390a28261ffff167f442fa70cca1b8a438745c1a975d44456f5b7cdd2db4536c6dc2cb9a0d3f138aa5f604051610aa49190611ab6565b60405180910390a25f8054600160a01b900461ffff16906014610ac6836121aa565b91906101000a81548161ffff021916908361ffff16021790555050505050565b60078101545f9067ffffffffffffffff811115610b0557610b056116e9565b604051908082528060200260200182016040528015610b2e578160200160208202803683370190505b5090505f5b6007830154811015610bb0575f836007018281548110610b5557610b556122e0565b5f91825260208083209091015461ffff891683526004825260408084206001600160a01b0390921680855291909252912054909150838381518110610b9c57610b9c6122e0565b602090810291909101015250600101610b33565b50610bc281638687155160e01b6111a6565b50505b505050565b61ffff81165f908152600260205260408120600401544210610bed57505f919050565b61ffff82165f90815260026020526040902060040154610c0e9042906122f4565b92915050565b5f805461ffff600160a01b9091048116808352600260208190526040842090810154600382015460048301546006840154845460609788978a97889788978897929693958795600187019560ff90941694929316908690610c7490611ed9565b80601f0160208091040260200160405190810160405280929190818152602001828054610ca090611ed9565b8015610ceb5780601f10610cc257610100808354040283529160200191610ceb565b820191905f5260205f20905b815481529060010190602001808311610cce57829003601f168201915b50505050509550848054610cfe90611ed9565b80601f0160208091040260200160405190810160405280929190818152602001828054610d2a90611ed9565b8015610d755780601f10610d4c57610100808354040283529160200191610d75565b820191905f5260205f20905b815481529060010190602001808311610d5857829003601f168201915b5050505050945097509750975097509750975097505090919293949596565b61ffff81165f9081526002602081905260408220015460ff168015610c0e57505061ffff165f9081526002602052604090206004015442111590565b5f82604051602001610de2919061235f565b60405160208183030381529060405290505f82604051602001610e0591906123d6565b6040516020818303038152906040529050610e218583836111b9565b5f8054600160a01b900461ffff1681526002602052604081209080805b8751811015610eb657878181518110610e5957610e596122e0565b602002602001015160ff16600103610e7d5782610e75816121aa565b935050610eae565b878181518110610e8f57610e8f6122e0565b602002602001015160ff165f03610eae5781610eaa816121aa565b9250505b600101610e3e565b50600683018054600160301b65ffffffff0000199091166201000061ffff86811691820265ffff000000001916929092176401000000008684169081029190911766ff0000000000001916939093179093555f546040519290931192600160a01b900416907f97c8388eb77299f1ebba4ae5893e7ca4d0030932426f82892601c214e9fe164890610f4a90869086906123e7565b60405180910390a25f60149054906101000a900461ffff1661ffff167f442fa70cca1b8a438745c1a975d44456f5b7cdd2db4536c6dc2cb9a0d3f138aa82604051610f959190611ab6565b60405180910390a25f8054600160a01b900461ffff16906014610fb7836121aa565b91906101000a81548161ffff021916908361ffff16021790555050505050505050505050565b60058181548110610fec575f80fd5b5f918252602090912001546001600160a01b0316905081565b60026020525f908152604090208054819061101f90611ed9565b80601f016020809104026020016040519081016040528092919081815260200182805461104b90611ed9565b80156110965780601f1061106d57610100808354040283529160200191611096565b820191905f5260205f20905b81548152906001019060200180831161107957829003601f168201915b5050505050908060010180546110ab90611ed9565b80601f01602080910402602001604051908101604052809291908181526020018280546110d790611ed9565b80156111225780601f106110f957610100808354040283529160200191611122565b820191905f5260205f20905b81548152906001019060200180831161110557829003601f168201915b5050506002840154600385015460048601546005870154600690970154959660ff938416969295509093509161ffff80831692620100008104821692640100000000820490921691600160301b909104168a565b5f610c0e8260ff166002611222565b5f61119082306112cc565b5090565b5f61119f83836112cc565b5090919050565b5f6111b283835f61133d565b9392505050565b5f6111c384611458565b90505f6111d1828585611529565b9050806111f15760405163cf6c44e960e01b815260040160405180910390fd5b60405185907f1af0453083661051f6e56e5c070792320652e612154bf9af8637bb1e7655b99d905f90a25050505050565b7f9e7b61f58c47dc699ac88507c4f5bb9f121c03808c5676a8078fe583e464970154604051639cd07acb60e01b81525f915f805160206125e8833981519152916001600160a01b0390911690639cd07acb906112849087908790600401612443565b6020604051808303815f875af11580156112a0573d5f803e3d5ffd5b505050506040513d601f19601f820116820180604052508101906112c49190612469565b949350505050565b5f805160206125e88339815191528054604051635ca4b5b160e11b81526001600160a01b039091169063b9496b629061130b9086908690600401612486565b5f604051808303815f87803b158015611322575f80fd5b505af1158015611334573d5f803e3d5ffd5b50505050505050565b7f878245876662ba28a480c5ea71726db859fb50222b0a3d7cbbc21cfa336faf0080545f805160206125e88339815191528054604051637d6e912360e11b81529293926001600160a01b039091169063fadd2246906113a09089906004016124e6565b5f604051808303815f87803b1580156113b7575f80fd5b505af11580156113c9573d5f803e3d5ffd5b5050506002820154604051633263b83b60e01b81526001600160a01b039091169150633263b83b9086906114059087908b908b90600401612507565b5f604051808303818588803b15801561141c575f80fd5b505af115801561142e573d5f803e3d5ffd5b505050505061143d8387611602565b8154825f61144a83612536565b919050555050509392505050565b5f8181527f878245876662ba28a480c5ea71726db859fb50222b0a3d7cbbc21cfa336faf0160205260408120546060917f878245876662ba28a480c5ea71726db859fb50222b0a3d7cbbc21cfa336faf009190036114c95760405163d66ca67560e01b815260040160405180910390fd5b5f8381526001820160209081526040918290208054835181840281018401909452808452909183018282801561151c57602002820191905f5260205f20905b815481526020019060010190808311611508575b5050505050915050919050565b5f80835160206115399190611eb2565b611544906020611eb2565b90505f848260405160200161155a929190612568565b60405160208183030381529060405290505f6115805f805160206125e883398151915290565b60038101546040516378542ead60e01b81529192506001600160a01b0316906378542ead906115b7908a9086908a9060040161257e565b6020604051808303815f875af11580156115d3573d5f803e3d5ffd5b505050506040513d601f19601f820116820180604052508101906115f791906125ca565b979650505050505050565b5f8281527f878245876662ba28a480c5ea71726db859fb50222b0a3d7cbbc21cfa336faf0160205260409020547f878245876662ba28a480c5ea71726db859fb50222b0a3d7cbbc21cfa336faf00901561166f57604051633f06d22b60e01b815260040160405180910390fd5b5f8381526001820160209081526040909120835161168f92850190611695565b50505050565b828054828255905f5260205f209081019282156116ce579160200282015b828111156116ce5782518255916020019190600101906116b3565b506111909291505b80821115611190575f81556001016116d6565b634e487b7160e01b5f52604160045260245ffd5b601f19601f830116810181811067ffffffffffffffff82111715611723576117236116e9565b6040525050565b5f61173460405190565b905061174082826116fd565b919050565b5f67ffffffffffffffff82111561175e5761175e6116e9565b601f19601f8301165b60200192915050565b82818337505f910152565b5f61178d61178884611745565b61172a565b90508281528383830111156117a3576117a35f80fd5b6111b2836020830184611770565b5f82601f8301126117c3576117c35f80fd5b6111b28383356020850161177b565b805b81146117de575f80fd5b50565b8035610c0e816117d2565b5f805f60608486031215611801576118015f80fd5b833567ffffffffffffffff81111561181a5761181a5f80fd5b611826868287016117b1565b935050602084013567ffffffffffffffff811115611845576118455f80fd5b611851868287016117b1565b92505061186185604086016117e1565b90509250925092565b61ffff81165b82525050565b60208101610c0e828461186a565b61ffff81166117d4565b8035610c0e81611884565b60ff81166117d4565b8035610c0e81611899565b5f80604083850312156118c1576118c15f80fd5b6118cb848461188e565b91506118da84602085016118a2565b90509250929050565b5f602082840312156118f6576118f65f80fd5b6111b283836118a2565b5f60208284031215611913576119135f80fd5b6111b2838361188e565b5f6001600160a01b038216610c0e565b6117d48161191d565b8035610c0e8161192d565b5f8060408385031215611955576119555f80fd5b61195f848461188e565b91506118da8460208501611936565b5f81610c0e565b6118708161196e565b80611870565b801515611870565b6060810161199a8286611975565b6119a7602083018561197e565b6112c46040830184611984565b5f602082840312156119c7576119c75f80fd5b6111b28383611936565b6060810161199a8286611984565b60208101610c0e828461197e565b5f5b83811015611a075781810151838201526020016119ef565b50505f910152565b5f611a18825190565b808452602084019350611a2f8185602086016119ed565b601f01601f19169290920192915050565b60e08101611a4e828a61186a565b8181036020830152611a608189611a0f565b90508181036040830152611a748188611a0f565b9050611a836060830187611984565b611a90608083018661197e565b611a9d60a083018561197e565b611aaa60c083018461186a565b98975050505050505050565b60208101610c0e8284611984565b5f67ffffffffffffffff821115611add57611add6116e9565b5060209081020190565b5f611af461178884611ac4565b83815290506020808201908402830185811115611b1257611b125f80fd5b835b81811015611b3457611b2687826118a2565b835260209283019201611b14565b5050509392505050565b5f82601f830112611b5057611b505f80fd5b6111b283833560208501611ae7565b5f611b6c61178884611ac4565b83815290506020808201908402830185811115611b8a57611b8a5f80fd5b835b81811015611b3457803567ffffffffffffffff811115611bad57611bad5f80fd5b611bb9888288016117b1565b84525060209283019201611b8c565b5f82601f830112611bda57611bda5f80fd5b6111b283833560208501611b5f565b5f805f60608486031215611bfe57611bfe5f80fd5b611c0885856117e1565b9250602084013567ffffffffffffffff811115611c2657611c265f80fd5b611c3286828701611b3e565b925050604084013567ffffffffffffffff811115611c5157611c515f80fd5b611c5d86828701611bc8565b9150509250925092565b5f60208284031215611c7a57611c7a5f80fd5b6111b283836117e1565b6118708161191d565b60208101610c0e8284611c84565b60a08101611ca98288611984565b611cb6602083018761186a565b611cc3604083018661186a565b611cd0606083018561186a565b611cdd6080830184611984565b9695505050505050565b6101408082528101611cf9818d611a0f565b90508181036020830152611d0d818c611a0f565b9050611d1c604083018b611984565b611d29606083018a61197e565b611d36608083018961197e565b611d4360a083018861197e565b611d5060c083018761186a565b611d5d60e083018661186a565b611d6b61010083018561186a565b611d79610120830184611984565b9b9a5050505050505050505050565b60808101611d968287611984565b611da36020830186611984565b611db0604083018561197e565b611dbd6060830184611975565b95945050505050565b6016815260208101752737ba1030baba3437b934bd32b21036b0b730b3b2b960511b815290505b60200190565b60208082528101610c0e81611dc6565b60198152602081017f4475726174696f6e206d75737420626520312d3720646179730000000000000081529050611ded565b60208082528101610c0e81611e03565b601e8152602081017f50726576696f75732070726f706f73616c207374696c6c20616374697665000081529050611ded565b60208082528101610c0e81611e45565b634e487b7160e01b5f52601160045260245ffd5b8181028115828204841417610c0e57610c0e611e87565b80820180821115610c0e57610c0e611e87565b634e487b7160e01b5f52602260045260245ffd5b600281046001821680611eed57607f821691505b602082108103611eff57611eff611ec5565b50919050565b5f610c0e611f108381565b90565b611f1c83611f05565b81545f1960089490940293841b1916921b91909117905550565b5f610bc5818484611f13565b81811015611f5c57611f545f82611f36565b600101611f42565b5050565b601f821115610bc5575f818152602090206020601f85010481016020851015611f865750805b610bc26020601f860104830182611f42565b815167ffffffffffffffff811115611fb257611fb26116e9565b611fbc8254611ed9565b611fc7828285611f60565b506020601f821160018114611ffa575f8315611fe35750848201515b5f19600885021c1981166002850217855550610bc2565b5f84815260208120601f198516915b828110156120295787850151825560209485019460019092019101612009565b508482101561204557838701515f19601f87166008021c191681555b50505050600202600101905550565b604080825281016120658185611a0f565b90506111b2602083018461197e565b60198152602081017f4e6f7420612072656769737465726564207265736964656e740000000000000081529050611ded565b60208082528101610c0e81612074565b60138152602081017250726f706f73616c206e6f742061637469766560681b81529050611ded565b60208082528101610c0e816120b6565b601381526020810172159bdd1a5b99c81c195c9a5bd908195b991959606a1b81529050611ded565b60208082528101610c0e816120ee565b601e8152602081017f566f7465206d757374206265203020284e6f29206f722031202859657329000081529050611ded565b60208082528101610c0e81612126565b601e8152602081017f416c726561647920766f746564206f6e20746869732070726f706f73616c000081529050611ded565b60208082528101610c0e81612168565b61ffff165f61fffe1982016121c1576121c1611e87565b5060010190565b601281526020810171105b1c9958591e481c9959da5cdd195c995960721b81529050611ded565b60208082528101610c0e816121c8565b60138152602081017224b73b30b634b2103ab734ba10373ab6b132b960691b81529050611ded565b60208082528101610c0e816121ff565b601381526020810172566f74696e67207374696c6c2061637469766560681b81529050611ded565b60208082528101610c0e81612237565b60188152602081017f526573756c747320616c72656164792072657665616c6564000000000000000081529050611ded565b60208082528101610c0e8161226f565b5f61ffff8216610c0e565b611870816122b1565b604081016122d382856122bc565b6111b260208301846122bc565b634e487b7160e01b5f52603260045260245ffd5b81810381811115610c0e57610c0e611e87565b60ff8116611870565b61231a8282612307565b5060200190565b5f61232a825190565b602083015f5b828110156123555781516123448782612310565b965050602082019150600101612330565b5093949350505050565b610c0e8183612321565b5f6111b28383611a0f565b5f61237d825190565b808452602084019350836020820285016123978560200190565b5f5b848110156123ca57838303885281516123b28482612369565b93505060208201602098909801979150600101612399565b50909695505050505050565b602080825281016111b28184612374565b604081016123f5828561186a565b6111b2602083018461186a565b634e487b7160e01b5f52602160045260245ffd5b605481106117de576117de612402565b8061174081612416565b5f610c0e82612426565b61187081612430565b60408101612451828561197e565b6111b2602083018461243a565b8051610c0e816117d2565b5f6020828403121561247c5761247c5f80fd5b6111b2838361245e565b60408101612494828561197e565b6111b26020830184611c84565b61231a828261197e565b5f6124b4825190565b80845260209384019383015f5b828110156123555781516124d587826124a1565b9650506020820191506001016124c1565b602080825281016111b281846124ab565b6001600160e01b03198116611870565b60608101612515828661197e565b818103602083015261252781856124ab565b90506112c460408301846124f7565b5f600182016121c1576121c1611e87565b5f612550825190565b61255e8185602086016119ed565b9290920192915050565b6125728184612547565b9050611767818361197e565b6060808252810161258f81866124ab565b905081810360208301526125a38185611a0f565b90508181036040830152611dbd8184611a0f565b8015156117d4565b8051610c0e816125b7565b5f602082840312156125dd576125dd5f80fd5b6111b283836125bf56fe9e7b61f58c47dc699ac88507c4f5bb9f121c03808c5676a8078fe583e4649700a26469706673582212207d6672f3c832dafdfac8e1a05163385ac6610c4efe185e5171a29d8093e647bf64736f6c63430008180033",
  "linkReferences": {},
  "deployedLinkReferences": {}
}