{
  "_format": "hh-sol-artifact-1",
  "contractName": "StorageOptimizer",
  "sourceName": "contracts/GasOptimized.sol",
  "abi": [
    {
      "inputs": [
        {
          "internalType": "uint256",
          "name": "_immutableValue",
          "type": "uint256"
        }
      ],
      "stateMutability": "nonpayable",
      "type": "constructor"
    },
    {
      "inputs": [
        {
          "internalType": "uint256[]",
          "name": "data",
          "type": "uint256[]"
        }
      ],
      "name": "efficientArrayOperation",
      "outputs": [
        {
          "internalType": "uint256",
          "name": "sum",
          "type": "uint256"
        }
      ],
      "stateMutability": "pure",
      "type": "function"
    },
    {
      "inputs": [
        {
          "internalType": "uint8",
          "name": "flagIndex",
          "type": "uint8"
        }
      ],
      "name": "getFlag",
      "outputs": [
        {
          "internalType": "bool",
          "name": "",
          "type": "bool"
        }
      ],
      "stateMutability": "view",
      "type": "function"
    },
    {
      "inputs": [
        {
          "internalType": "uint8",
          "name": "flagIndex",
          "type": "uint8"
        },
        {
          "internalType": "bool",
          "name": "value",
          "type": "bool"
        }
      ],
      "name": "setFlag",
      "outputs": [],
      "stateMutability": "nonpayable",
      "type": "function"
    }
  ],
  "bytecode": "0x60a060405234801561000f575f80fd5b506040516103c63803806103c683398101604081905261002e91610036565b608052610050565b5f60208284031215610049576100495f80fd5b5051919050565b6080516103616100655f395f50506103615ff3fe608060405234801561000f575f80fd5b506004361061003f575f3560e01c806387e6374214610043578063f2c09b711461006c578063fb9e3a3b1461008c575b5f80fd5b610056610051366004610194565b6100a1565b60405161006391906101c2565b60405180910390f35b61007f61007a36600461021e565b6100e0565b6040516100639190610269565b61009f61009a36600461028a565b610122565b005b5f6101008260ff16106100cf5760405162461bcd60e51b81526004016100c6906102c0565b60405180910390fd5b506001805460ff9092161b16151590565b5f81815b8181101561011a578484828181106100fe576100fe6102f0565b90506020020135836101109190610318565b92506001016100e4565b505092915050565b6101008260ff16106101465760405162461bcd60e51b81526004016100c6906102c0565b801561015e576001805460ff841682901b1790555050565b6001805460ff841682901b191690555050565b60ff81165b8114610180575f80fd5b50565b803561018e81610171565b92915050565b5f602082840312156101a7576101a75f80fd5b6101b18383610183565b9392505050565b8015155b82525050565b6020810161018e82846101b8565b5f8083601f8401126101e3576101e35f80fd5b50813567ffffffffffffffff8111156101fd576101fd5f80fd5b602083019150836020820283011115610217576102175f80fd5b9250929050565b5f8060208385031215610232576102325f80fd5b823567ffffffffffffffff81111561024b5761024b5f80fd5b610257858286016101d0565b92509250509250929050565b806101bc565b6020810161018e8284610263565b801515610176565b803561018e81610277565b5f806040838503121561029e5761029e5f80fd5b6102a88484610183565b91506102b7846020850161027f565b90509250929050565b6020808252810161018e816012815271092dcecc2d8d2c840ccd8c2ce40d2dcc8caf60731b602082015260400190565b634e487b7160e01b5f52603260045260245ffd5b634e487b7160e01b5f52601160045260245ffd5b8082018082111561018e5761018e61030456fea26469706673582212202e3f45d2ecde89bfe057840f533fc4889560dd85568f7d8eafb7096aac31cf2864736f6c63430008180033",
  "linkReferences": {},
  "deployedLinkReferences": {}
}