{
  "_format": "hh-sol-artifact-1",
  "contractName": "AnonymousPropertyVotingV2FixedLite",
  "sourceName": "contracts/AnonymousPropertyVotingV2FixedLite.sol",
  "abi": [
    {
      "inputs": [
        {
          "internalType": "address",
          "name": "_gateway",
          "type": "address"
        }
      ],
      "stateMutability": "nonpayable",
      "type": "constructor"
    },
    {
      "inputs": [],
      "name": "HandlesAlreadySavedForRequestID",
      "type": "error"
    },
    {
      "inputs": [],
      "name": "InvalidKMSSignatures",
      "type": "error"
    },
    {
      "inputs": [],
      "name": "NoHandleFoundForRequestID",
      "type": "error"
    },
    {
      "anonymous": false,
      "inputs": [
        {
          "indexed": true,
          "internalType": "uint256",
          "name": "requestID",
          "type": "uint256"
        }
      ],
      "name": "DecryptionFulfilled",
      "type": "event"
    },
    {
      "anonymous": false,
      "inputs": [
        {
          "indexed": true,
          "internalType": "uint16",
          "name": "proposalId",
          "type": "uint16"
        },
        {
          "indexed": false,
          "internalType": "uint256",
          "name": "endTime",
          "type": "uint256"
        }
      ],
      "name": "ProposalCreated",
      "type": "event"
    },
    {
      "anonymous": false,
      "inputs": [
        {
          "indexed": true,
          "internalType": "uint16",
          "name": "proposalId",
          "type": "uint16"
        },
        {
          "indexed": false,
          "internalType": "uint16",
          "name": "yesVotes",
          "type": "uint16"
        },
        {
          "indexed": false,
          "internalType": "uint16",
          "name": "noVotes",
          "type": "uint16"
        }
      ],
      "name": "ProposalEnded",
      "type": "event"
    },
    {
      "anonymous": false,
      "inputs": [
        {
          "indexed": true,
          "internalType": "uint16",
          "name": "proposalId",
          "type": "uint16"
        }
      ],
      "name": "ProposalForceClosed",
      "type": "event"
    },
    {
      "anonymous": false,
      "inputs": [
        {
          "indexed": true,
          "internalType": "address",
          "name": "resident",
          "type": "address"
        }
      ],
      "name": "ResidentRegistered",
      "type": "event"
    },
    {
      "anonymous": false,
      "inputs": [
        {
          "indexed": true,
          "internalType": "address",
          "name": "voter",
          "type": "address"
        },
        {
          "indexed": true,
          "internalType": "uint16",
          "name": "proposalId",
          "type": "uint16"
        }
      ],
      "name": "VoteSubmitted",
      "type": "event"
    },
    {
      "inputs": [
        {
          "internalType": "string",
          "name": "title",
          "type": "string"
        },
        {
          "internalType": "uint256",
          "name": "votingDurationHours",
          "type": "uint256"
        }
      ],
      "name": "createProposal",
      "outputs": [],
      "stateMutability": "nonpayable",
      "type": "function"
    },
    {
      "inputs": [],
      "name": "currentProposal",
      "outputs": [
        {
          "internalType": "uint16",
          "name": "",
          "type": "uint16"
        }
      ],
      "stateMutability": "view",
      "type": "function"
    },
    {
      "inputs": [
        {
          "internalType": "uint16",
          "name": "proposalId",
          "type": "uint16"
        }
      ],
      "name": "endProposal",
      "outputs": [],
      "stateMutability": "nonpayable",
      "type": "function"
    },
    {
      "inputs": [
        {
          "internalType": "uint16",
          "name": "proposalId",
          "type": "uint16"
        }
      ],
      "name": "forceCloseProposal",
      "outputs": [],
      "stateMutability": "nonpayable",
      "type": "function"
    },
    {
      "inputs": [],
      "name": "gateway",
      "outputs": [
        {
          "internalType": "address",
          "name": "",
          "type": "address"
        }
      ],
      "stateMutability": "view",
      "type": "function"
    },
    {
      "inputs": [],
      "name": "getCurrentProposalInfo",
      "outputs": [
        {
          "internalType": "uint16",
          "name": "proposalId",
          "type": "uint16"
        },
        {
          "internalType": "string",
          "name": "title",
          "type": "string"
        },
        {
          "internalType": "string",
          "name": "description",
          "type": "string"
        },
        {
          "internalType": "bool",
          "name": "isActive",
          "type": "bool"
        },
        {
          "internalType": "uint256",
          "name": "startTime",
          "type": "uint256"
        },
        {
          "internalType": "uint256",
          "name": "endTime",
          "type": "uint256"
        },
        {
          "internalType": "uint16",
          "name": "totalVotes",
          "type": "uint16"
        }
      ],
      "stateMutability": "view",
      "type": "function"
    },
    {
      "inputs": [
        {
          "internalType": "uint16",
          "name": "proposalId",
          "type": "uint16"
        }
      ],
      "name": "getProposalResults",
      "outputs": [
        {
          "internalType": "bool",
          "name": "resultsRevealed",
          "type": "bool"
        },
        {
          "internalType": "uint16",
          "name": "totalVotes",
          "type": "uint16"
        },
        {
          "internalType": "uint16",
          "name": "yesVotes",
          "type": "uint16"
        },
        {
          "internalType": "uint16",
          "name": "noVotes",
          "type": "uint16"
        },
        {
          "internalType": "bool",
          "name": "approved",
          "type": "bool"
        }
      ],
      "stateMutability": "view",
      "type": "function"
    },
    {
      "inputs": [
        {
          "internalType": "address",
          "name": "resident",
          "type": "address"
        }
      ],
      "name": "getResidentStatus",
      "outputs": [
        {
          "internalType": "bool",
          "name": "isRegistered",
          "type": "bool"
        },
        {
          "internalType": "uint256",
          "name": "registrationTime",
          "type": "uint256"
        },
        {
          "internalType": "bool",
          "name": "hasVotedCurrentProposal",
          "type": "bool"
        }
      ],
      "stateMutability": "view",
      "type": "function"
    },
    {
      "inputs": [],
      "name": "getVersionInfo",
      "outputs": [
        {
          "internalType": "string",
          "name": "version",
          "type": "string"
        },
        {
          "internalType": "string",
          "name": "features",
          "type": "string"
        }
      ],
      "stateMutability": "pure",
      "type": "function"
    },
    {
      "inputs": [
        {
          "internalType": "uint16",
          "name": "proposalId",
          "type": "uint16"
        }
      ],
      "name": "getVotingTimeLeft",
      "outputs": [
        {
          "internalType": "uint256",
          "name": "",
          "type": "uint256"
        }
      ],
      "stateMutability": "view",
      "type": "function"
    },
    {
      "inputs": [
        {
          "internalType": "uint16",
          "name": "proposalId",
          "type": "uint16"
        }
      ],
      "name": "isVotingActive",
      "outputs": [
        {
          "internalType": "bool",
          "name": "",
          "type": "bool"
        }
      ],
      "stateMutability": "view",
      "type": "function"
    },
    {
      "inputs": [
        {
          "internalType": "uint256",
          "name": "requestId",
          "type": "uint256"
        },
        {
          "internalType": "uint8[]",
          "name": "decryptedVotes",
          "type": "uint8[]"
        },
        {
          "internalType": "bytes[]",
          "name": "signatures",
          "type": "bytes[]"
        }
      ],
      "name": "processVoteResults",
      "outputs": [],
      "stateMutability": "nonpayable",
      "type": "function"
    },
    {
      "inputs": [],
      "name": "propertyManager",
      "outputs": [
        {
          "internalType": "address",
          "name": "",
          "type": "address"
        }
      ],
      "stateMutability": "view",
      "type": "function"
    },
    {
      "inputs": [
        {
          "internalType": "uint16",
          "name": "",
          "type": "uint16"
        },
        {
          "internalType": "address",
          "name": "",
          "type": "address"
        }
      ],
      "name": "proposalVotes",
      "outputs": [
        {
          "internalType": "euint8",
          "name": "vote",
          "type": "bytes32"
        },
        {
          "internalType": "bool",
          "name": "submitted",
          "type": "bool"
        }
      ],
      "stateMutability": "view",
      "type": "function"
    },
    {
      "inputs": [
        {
          "internalType": "uint16",
          "name": "",
          "type": "uint16"
        }
      ],
      "name": "proposals",
      "outputs": [
        {
          "internalType": "string",
          "name": "title",
          "type": "string"
        },
        {
          "internalType": "bool",
          "name": "isActive",
          "type": "bool"
        },
        {
          "internalType": "uint256",
          "name": "endTime",
          "type": "uint256"
        },
        {
          "internalType": "uint16",
          "name": "totalVotes",
          "type": "uint16"
        },
        {
          "internalType": "uint16",
          "name": "yesVotes",
          "type": "uint16"
        },
        {
          "internalType": "uint16",
          "name": "noVotes",
          "type": "uint16"
        },
        {
          "internalType": "bool",
          "name": "resultsRevealed",
          "type": "bool"
        }
      ],
      "stateMutability": "view",
      "type": "function"
    },
    {
      "inputs": [],
      "name": "protocolId",
      "outputs": [
        {
          "internalType": "uint256",
          "name": "",
          "type": "uint256"
        }
      ],
      "stateMutability": "pure",
      "type": "function"
    },
    {
      "inputs": [
        {
          "internalType": "uint8",
          "name": "unitNumber",
          "type": "uint8"
        }
      ],
      "name": "registerResident",
      "outputs": [],
      "stateMutability": "nonpayable",
      "type": "function"
    },
    {
      "inputs": [
        {
          "internalType": "address",
          "name": "",
          "type": "address"
        }
      ],
      "name": "residents",
      "outputs": [
        {
          "internalType": "bool",
          "name": "isRegistered",
          "type": "bool"
        },
        {
          "internalType": "euint8",
          "name": "encryptedUnit",
          "type": "bytes32"
        }
      ],
      "stateMutability": "view",
      "type": "function"
    },
    {
      "inputs": [
        {
          "internalType": "address",
          "name": "_newGateway",
          "type": "address"
        }
      ],
      "name": "setGateway",
      "outputs": [],
      "stateMutability": "nonpayable",
      "type": "function"
    },
    {
      "inputs": [
        {
          "internalType": "uint16",
          "name": "proposalId",
          "type": "uint16"
        },
        {
          "internalType": "uint8",
          "name": "voteChoice",
          "type": "uint8"
        }
      ],
      "name": "submitVote",
      "outputs": [],
      "stateMutability": "nonpayable",
      "type": "function"
    }
  ],
  "bytecode": "0x608060405234801562000010575f80fd5b506040516200272b3803806200272b833981016040819052620000339162000234565b620000d9620000d3604080516080810182525f808252602082018190529181018290526060810191909152506040805160808101825273687820221192c5b662b25367f70076a37bc79b6c815273848b0066793bcc60346da1f49049357399b8d595602082015273a02cda4ca3a71d7c46997716f4283aa851c2881291810191909152731364cbbf2cdf5032c47d8226a6f6fbd2afcdacac606082015290565b62000120565b5f8054600160a01b6001600160b01b03199091163361ffff60a01b191617179055600180546001600160a01b0319166001600160a01b03929092169190911790556200025c565b80517f9e7b61f58c47dc699ac88507c4f5bb9f121c03808c5676a8078fe583e464970080546001600160a01b03199081166001600160a01b039384161790915560208301517f9e7b61f58c47dc699ac88507c4f5bb9f121c03808c5676a8078fe583e46497018054831691841691909117905560408301517f9e7b61f58c47dc699ac88507c4f5bb9f121c03808c5676a8078fe583e46497028054831691841691909117905560608301517f9e7b61f58c47dc699ac88507c4f5bb9f121c03808c5676a8078fe583e46497038054909216921691909117905550565b50565b5f6001600160a01b0382165b92915050565b6200021c81620001ff565b8114620001fc575f80fd5b80516200020b8162000211565b5f602082840312156200024957620002495f80fd5b62000255838362000227565b9392505050565b6124c1806200026a5f395ff3fe608060405234801561000f575f80fd5b5060043610610127575f3560e01c80635da645c3116100a9578063bdbe4e481161006e578063bdbe4e4814610316578063c497efa314610374578063da1f12ab1461039a578063e4d65d54146103a2578063e7356cb5146103dc575f80fd5b80635da645c31461029557806362d24d15146102b55780636b528c36146102d057806386871551146102f057806390646b4a14610303575f80fd5b8063322d5a47116100ef578063322d5a47146101b357806335facf78146101c65780633f085ee3146101d9578063559239c01461021b5780635c9dbb0014610282575f80fd5b8063116191b61461012b578063164e6374146101545780632b49d4251461016a5780632d1a8a9c1461018b5780632e9413dc146101a0575b5f80fd5b60015461013e906001600160a01b031681565b60405161014b9190611644565b60405180910390f35b61015c6103ee565b60405161014b9291906116a5565b5f5461017e90600160a01b900461ffff1681565b60405161014b91906116d4565b61019e610199366004611714565b610435565b005b61019e6101ae36600461174a565b610656565b61019e6101c1366004611767565b61073c565b61019e6101d436600461187e565b6109dd565b61020d6101e73660046118db565b600460209081525f92835260408084209091529082529020805460019091015460ff1682565b60405161014b929190611920565b61027361022936600461193b565b6001600160a01b03165f818152600360209081526040808320548354600160a01b900461ffff16845260028352818420948452600590940190915281205460ff9283169391921690565b60405161014b9392919061195e565b61019e610290366004611767565b610b26565b6102a86102a3366004611767565b610c5a565b60405161014b9190611986565b6102bd610ca5565b60405161014b9796959493929190611994565b6102e36102de366004611767565b610da6565b60405161014b9190611a0a565b61019e6102fe366004611b3d565b610de3565b61019e61031136600461193b565b610f9b565b610363610324366004611767565b61ffff9081165f90815260026020526040902060030154600160301b810460ff1692818316926201000083048116926401000000009004169081831190565b60405161014b959493929190611bbb565b610387610382366004611767565b610fe6565b60405161014b9796959493929190611c07565b6127116102a8565b6103ce6103b036600461193b565b60036020525f90815260409020805460019091015460ff9091169082565b60405161014b929190611c68565b5f5461013e906001600160a01b031681565b6060806040518060400160405280600a815260200169322e302e322d4c49544560b01b81525060405180606001604052806021815260200161244b60219139915091509091565b335f9081526003602052604090205460ff1661046c5760405162461bcd60e51b815260040161046390611ca6565b60405180910390fd5b61ffff82165f9081526002602052604090206001015460ff166104a15760405162461bcd60e51b815260040161046390611cd5565b61ffff82165f90815260026020819052604090912001544211156104d75760405162461bcd60e51b815260040161046390611cff565b60018160ff1611156104fb5760405162461bcd60e51b815260040161046390611d30565b61ffff82165f90815260046020908152604080832033845290915290206001015460ff161561053c5760405162461bcd60e51b815260040161046390611d5a565b5f610546826110bd565b6040805180820182528281526001602080830182815261ffff808a165f818152600480865288822033808452908752898320985189559451978701805498151560ff19998a1617905582825260028087528983208684526005810188529983208054909916881790985596855295870180549586018155865292852090930180546001600160a01b03191690911790558252600390920180549394509290911691906105f183611d7e565b91906101000a81548161ffff021916908361ffff16021790555050610615816110cc565b5061062081336110db565b5060405161ffff84169033907fe26d6859f9e30471a22dcd8ced1b5793cd16137994a453a593ee70aee60cda92905f90a3505050565b335f9081526003602052604090205460ff16156106855760405162461bcd60e51b815260040161046390611dbb565b5f8160ff1611801561069b575060c88160ff1611155b6106b75760405162461bcd60e51b815260040161046390611dec565b5f6106c1826110bd565b60408051808201825260018082526020808301858152335f90815260039092529390209151825460ff191690151517825591519101559050610702816110cc565b5061070d81336110db565b5060405133907fcf0b6369d76a8b3e6b0cc55ae93e538e0bdd0f5fed6455b9d0468cc5bcbfcf34905f90a25050565b5f546001600160a01b031633146107655760405162461bcd60e51b815260040161046390611e18565b61ffff81165f9081526002602081905260409091200154421161079a5760405162461bcd60e51b815260040161046390611e43565b61ffff81165f90815260026020526040902060030154600160301b900460ff16156107d75760405162461bcd60e51b815260040161046390611e70565b61ffff81165f9081526002602052604090206001015460ff1661080c5760405162461bcd60e51b815260040161046390611cd5565b61ffff8082165f90815260026020526040902060030154166108405760405162461bcd60e51b815260040161046390611e9d565b6001546001600160a01b0316156108dc57600154604051638d99b79160e01b81526001600160a01b0390911690638d99b79190610881903090600401611644565b602060405180830381865afa15801561089c573d5f803e3d5ffd5b505050506040513d601f19601f820116820180604052508101906108c09190611ec0565b6108dc5760405162461bcd60e51b815260040161046390611f00565b61ffff81165f90815260026020526040812060018101805460ff19169055600481015490919067ffffffffffffffff81111561091a5761091a611784565b604051908082528060200260200182016040528015610943578160200160208202803683370190505b5090505f5b60048301548110156109c5575f83600401828154811061096a5761096a611f10565b5f91825260208083209091015461ffff881683526004825260408084206001600160a01b03909216808552919092529120549091508383815181106109b1576109b1611f10565b602090810291909101015250600101610948565b506109d781638687155160e01b6110ed565b50505050565b5f546001600160a01b03163314610a065760405162461bcd60e51b815260040161046390611e18565b60188110158015610a18575060a88111155b610a345760405162461bcd60e51b815260040161046390611f46565b5f8054600160a01b900461ffff1681526002602052604090206001015460ff1615610a715760405162461bcd60e51b815260040161046390611f7a565b5f610a7e82610e10611f8a565b610a889042611fa1565b5f8054600160a01b900461ffff16815260026020526040902090915080610aaf8582612093565b506001818101805460ff191690911790556002810182905560038101805466ffffffffffffff191690555f54604051600160a01b90910461ffff16907f02cea874aab3450ec2539a329f1e8e060e4f999d28520316adbf50f2b08698f990610b18908590611986565b60405180910390a250505050565b5f546001600160a01b03163314610b4f5760405162461bcd60e51b815260040161046390611e18565b61ffff81165f9081526002602052604090206001015460ff16610b845760405162461bcd60e51b815260040161046390611cd5565b61ffff81165f8181526002602052604080822060018101805460ff1916905560038101805466ff0000000000001916600160301b17905590519092917f314ef5a0e20c2c5ef48e55fecbe6ace82a22bd7df46b4b284c96eb7ade0ec66e91a28161ffff167f97c8388eb77299f1ebba4ae5893e7ca4d0030932426f82892601c214e9fe16485f80604051610c19929190612163565b60405180910390a25f8054600160a01b900461ffff16906014610c3b83611d7e565b91906101000a81548161ffff021916908361ffff160217905550505050565b61ffff81165f908152600260208190526040822001544210610c7d57505f919050565b61ffff82165f9081526002602081905260409091200154610c9f90429061217e565b92915050565b5f805461ffff600160a01b90910481168083526002602081905260408420600181015491810154600382015482546060968796899687968796879691959394869460ff909416938893909116908590610cfd90611fc8565b80601f0160208091040260200160405190810160405280929190818152602001828054610d2990611fc8565b8015610d745780601f10610d4b57610100808354040283529160200191610d74565b820191905f5260205f20905b815481529060010190602001808311610d5757829003601f168201915b5050505050945060405180602001604052805f8152509392919097509750975097509750975097505090919293949596565b61ffff81165f9081526002602052604081206001015460ff168015610c9f57505061ffff165f908152600260208190526040909120015442111590565b5f82604051602001610df591906121e9565b60405160208183030381529060405290505f82604051602001610e189190612260565b6040516020818303038152906040529050610e34858383611100565b5f8054600160a01b900461ffff1681526002602052604081209080805b8751811015610ec957878181518110610e6c57610e6c611f10565b602002602001015160ff16600103610e905782610e8881611d7e565b935050610ec1565b878181518110610ea257610ea2611f10565b602002602001015160ff165f03610ec15781610ebd81611d7e565b9250505b600101610e51565b5060038301805466ff0000000000001961ffff8481166401000000000265ffff000000001982881662010000021665ffffffff000019909416939093179290921716600160301b179091555f54604051600160a01b909104909116907f97c8388eb77299f1ebba4ae5893e7ca4d0030932426f82892601c214e9fe164890610f549085908590612271565b60405180910390a25f8054600160a01b900461ffff16906014610f7683611d7e565b91906101000a81548161ffff021916908361ffff160217905550505050505050505050565b5f546001600160a01b03163314610fc45760405162461bcd60e51b815260040161046390611e18565b600180546001600160a01b0319166001600160a01b0392909216919091179055565b60026020525f908152604090208054819061100090611fc8565b80601f016020809104026020016040519081016040528092919081815260200182805461102c90611fc8565b80156110775780601f1061104e57610100808354040283529160200191611077565b820191905f5260205f20905b81548152906001019060200180831161105a57829003601f168201915b50505060018401546002850154600390950154939460ff9182169490935061ffff8082169350620100008204811692640100000000830490911691600160301b90041687565b5f610c9f8260ff166002611169565b5f6110d78230611213565b5090565b5f6110e68383611213565b5090919050565b5f6110f983835f611284565b9392505050565b5f61110a8461139f565b90505f611118828585611470565b9050806111385760405163cf6c44e960e01b815260040160405180910390fd5b60405185907f1af0453083661051f6e56e5c070792320652e612154bf9af8637bb1e7655b99d905f90a25050505050565b7f9e7b61f58c47dc699ac88507c4f5bb9f121c03808c5676a8078fe583e464970154604051639cd07acb60e01b81525f915f8051602061246c833981519152916001600160a01b0390911690639cd07acb906111cb90879087906004016122cd565b6020604051808303815f875af11580156111e7573d5f803e3d5ffd5b505050506040513d601f19601f8201168201806040525081019061120b91906122f3565b949350505050565b5f8051602061246c8339815191528054604051635ca4b5b160e11b81526001600160a01b039091169063b9496b62906112529086908690600401612310565b5f604051808303815f87803b158015611269575f80fd5b505af115801561127b573d5f803e3d5ffd5b50505050505050565b7f878245876662ba28a480c5ea71726db859fb50222b0a3d7cbbc21cfa336faf0080545f8051602061246c8339815191528054604051637d6e912360e11b81529293926001600160a01b039091169063fadd2246906112e7908990600401612370565b5f604051808303815f87803b1580156112fe575f80fd5b505af1158015611310573d5f803e3d5ffd5b5050506002820154604051633263b83b60e01b81526001600160a01b039091169150633263b83b90869061134c9087908b908b90600401612391565b5f604051808303818588803b158015611363575f80fd5b505af1158015611375573d5f803e3d5ffd5b50505050506113848387611549565b8154825f611391836123c0565b919050555050509392505050565b5f8181527f878245876662ba28a480c5ea71726db859fb50222b0a3d7cbbc21cfa336faf0160205260408120546060917f878245876662ba28a480c5ea71726db859fb50222b0a3d7cbbc21cfa336faf009190036114105760405163d66ca67560e01b815260040160405180910390fd5b5f8381526001820160209081526040918290208054835181840281018401909452808452909183018282801561146357602002820191905f5260205f20905b81548152602001906001019080831161144f575b5050505050915050919050565b5f80835160206114809190611fa1565b61148b906020611fa1565b90505f84826040516020016114a19291906123f2565b60405160208183030381529060405290505f6114c75f8051602061246c83398151915290565b60038101546040516378542ead60e01b81529192506001600160a01b0316906378542ead906114fe908a9086908a90600401612408565b6020604051808303815f875af115801561151a573d5f803e3d5ffd5b505050506040513d601f19601f8201168201806040525081019061153e9190611ec0565b979650505050505050565b5f8281527f878245876662ba28a480c5ea71726db859fb50222b0a3d7cbbc21cfa336faf0160205260409020547f878245876662ba28a480c5ea71726db859fb50222b0a3d7cbbc21cfa336faf0090156115b657604051633f06d22b60e01b815260040160405180910390fd5b5f838152600182016020908152604090912083516109d792850190828054828255905f5260205f2090810192821561160a579160200282015b8281111561160a5782518255916020019190600101906115ef565b506110d79291505b808211156110d7575f8155600101611612565b5f6001600160a01b038216610c9f565b61163e81611625565b82525050565b60208101610c9f8284611635565b5f5b8381101561166c578181015183820152602001611654565b50505f910152565b5f61167d825190565b808452602084019350611694818560208601611652565b601f01601f19169290920192915050565b604080825281016116b68185611674565b9050818103602083015261120b8184611674565b61ffff811661163e565b60208101610c9f82846116ca565b61ffff81165b81146116f2575f80fd5b50565b8035610c9f816116e2565b60ff81166116e8565b8035610c9f81611700565b5f8060408385031215611728576117285f80fd5b61173284846116f5565b91506117418460208501611709565b90509250929050565b5f6020828403121561175d5761175d5f80fd5b6110f98383611709565b5f6020828403121561177a5761177a5f80fd5b6110f983836116f5565b634e487b7160e01b5f52604160045260245ffd5b601f19601f830116810181811067ffffffffffffffff821117156117be576117be611784565b6040525050565b5f6117cf60405190565b90506117db8282611798565b919050565b5f67ffffffffffffffff8211156117f9576117f9611784565b601f19601f8301165b60200192915050565b82818337505f910152565b5f611828611823846117e0565b6117c5565b905082815283838301111561183e5761183e5f80fd5b6110f983602083018461180b565b5f82601f83011261185e5761185e5f80fd5b6110f983833560208501611816565b806116e8565b8035610c9f8161186d565b5f8060408385031215611892576118925f80fd5b823567ffffffffffffffff8111156118ab576118ab5f80fd5b6118b78582860161184c565b9250506117418460208501611873565b6116e881611625565b8035610c9f816118c7565b5f80604083850312156118ef576118ef5f80fd5b6118f984846116f5565b915061174184602085016118d0565b5f81610c9f565b61163e81611908565b80151561163e565b6040810161192e828561190f565b6110f96020830184611918565b5f6020828403121561194e5761194e5f80fd5b6110f983836118d0565b8061163e565b6060810161196c8286611918565b6119796020830185611958565b61120b6040830184611918565b60208101610c9f8284611958565b60e081016119a2828a6116ca565b81810360208301526119b48189611674565b905081810360408301526119c88188611674565b90506119d76060830187611918565b6119e46080830186611958565b6119f160a0830185611958565b6119fe60c08301846116ca565b98975050505050505050565b60208101610c9f8284611918565b5f67ffffffffffffffff821115611a3157611a31611784565b5060209081020190565b5f611a4861182384611a18565b83815290506020808201908402830185811115611a6657611a665f80fd5b835b81811015611a8857611a7a8782611709565b835260209283019201611a68565b5050509392505050565b5f82601f830112611aa457611aa45f80fd5b6110f983833560208501611a3b565b5f611ac061182384611a18565b83815290506020808201908402830185811115611ade57611ade5f80fd5b835b81811015611a8857803567ffffffffffffffff811115611b0157611b015f80fd5b611b0d8882880161184c565b84525060209283019201611ae0565b5f82601f830112611b2e57611b2e5f80fd5b6110f983833560208501611ab3565b5f805f60608486031215611b5257611b525f80fd5b611b5c8585611873565b9250602084013567ffffffffffffffff811115611b7a57611b7a5f80fd5b611b8686828701611a92565b925050604084013567ffffffffffffffff811115611ba557611ba55f80fd5b611bb186828701611b1c565b9150509250925092565b60a08101611bc98288611918565b611bd660208301876116ca565b611be360408301866116ca565b611bf060608301856116ca565b611bfd6080830184611918565b9695505050505050565b60e08082528101611c18818a611674565b9050611c276020830189611918565b611c346040830188611958565b611c4160608301876116ca565b611c4e60808301866116ca565b611c5b60a08301856116ca565b6119fe60c0830184611918565b60408101611c768285611918565b6110f9602083018461190f565b600c8152602081016b139bdd081c995cda59195b9d60a21b815290505b60200190565b60208082528101610c9f81611c83565b600a815260208101694e6f742061637469766560b01b81529050611ca0565b60208082528101610c9f81611cb6565b600581526020810164115b99195960da1b81529050611ca0565b60208082528101610c9f81611ce5565b600c8152602081016b496e76616c696420766f746560a01b81529050611ca0565b60208082528101610c9f81611d0f565b600581526020810164159bdd195960da1b81529050611ca0565b60208082528101610c9f81611d40565b634e487b7160e01b5f52601160045260245ffd5b61ffff165f61fffe198201611d9557611d95611d6a565b5060010190565b600a81526020810169149959da5cdd195c995960b21b81529050611ca0565b60208082528101610c9f81611d9c565b600c8152602081016b125b9d985b1a59081d5b9a5d60a21b81529050611ca0565b60208082528101610c9f81611dcb565b6007815260208101662737ba1036b3b960c91b81529050611ca0565b60208082528101610c9f81611dfc565b60068152602081016541637469766560d01b81529050611ca0565b60208082528101610c9f81611e28565b60088152602081016714995d99585b195960c21b81529050611ca0565b60208082528101610c9f81611e53565b6008815260208101674e6f20766f74657360c01b81529050611ca0565b60208082528101610c9f81611e80565b8015156116e8565b8051610c9f81611ead565b5f60208284031215611ed357611ed35f80fd5b6110f98383611eb5565b600e8152602081016d11d85d195dd85e4819195b9a595960921b81529050611ca0565b60208082528101610c9f81611edd565b634e487b7160e01b5f52603260045260245ffd5b600d8152602081016c111d5c985d1a5bdb880c4b4dd9609a1b81529050611ca0565b60208082528101610c9f81611f24565b600f8152602081016e1058dd1a5d99481c1c9bdc1bdcd85b608a1b81529050611ca0565b60208082528101610c9f81611f56565b8181028115828204841417610c9f57610c9f611d6a565b80820180821115610c9f57610c9f611d6a565b634e487b7160e01b5f52602260045260245ffd5b600281046001821680611fdc57607f821691505b602082108103611fee57611fee611fb4565b50919050565b5f610c9f611fff8381565b90565b61200b83611ff4565b81545f1960089490940293841b1916921b91909117905550565b5f612031818484612002565b505050565b81811015612050576120485f82612025565b600101612036565b5050565b601f821115612031575f818152602090206020601f8501048101602085101561207a5750805b61208c6020601f860104830182612036565b5050505050565b815167ffffffffffffffff8111156120ad576120ad611784565b6120b78254611fc8565b6120c2828285612054565b506020601f8211600181146120f5575f83156120de5750848201515b5f19600885021c198116600285021785555061208c565b5f84815260208120601f198516915b828110156121245787850151825560209485019460019092019101612104565b508482101561214057838701515f19601f87166008021c191681555b50505050600202600101905550565b5f61ffff8216610c9f565b61163e8161214f565b60408101612171828561215a565b6110f9602083018461215a565b81810381811115610c9f57610c9f611d6a565b60ff811661163e565b6121a48282612191565b5060200190565b5f6121b4825190565b602083015f5b828110156121df5781516121ce878261219a565b9650506020820191506001016121ba565b5093949350505050565b610c9f81836121ab565b5f6110f98383611674565b5f612207825190565b808452602084019350836020820285016122218560200190565b5f5b84811015612254578383038852815161223c84826121f3565b93505060208201602098909801979150600101612223565b50909695505050505050565b602080825281016110f981846121fe565b6040810161227f82856116ca565b6110f960208301846116ca565b634e487b7160e01b5f52602160045260245ffd5b605481106116f2576116f261228c565b806117db816122a0565b5f610c9f826122b0565b61163e816122ba565b604081016122db8285611958565b6110f960208301846122c4565b8051610c9f8161186d565b5f60208284031215612306576123065f80fd5b6110f983836122e8565b6040810161231e8285611958565b6110f96020830184611635565b6121a48282611958565b5f61233e825190565b80845260209384019383015f5b828110156121df57815161235f878261232b565b96505060208201915060010161234b565b602080825281016110f98184612335565b6001600160e01b0319811661163e565b6060810161239f8286611958565b81810360208301526123b18185612335565b905061120b6040830184612381565b5f60018201611d9557611d95611d6a565b5f6123da825190565b6123e8818560208601611652565b9290920192915050565b6123fc81846123d1565b90506118028183611958565b606080825281016124198186612335565b9050818103602083015261242d8185611674565b905081810360408301526124418184611674565b9594505050505056fe464845207c20466f72636520436c6f7365207c20476173204f7074696d697a65649e7b61f58c47dc699ac88507c4f5bb9f121c03808c5676a8078fe583e4649700a2646970667358221220aada50cd423fd573f54ed2d1ae69b6f0119584e2991b54d1dfbb4f70dab34e5b64736f6c63430008180033",
  "linkReferences": {},
  "deployedLinkReferences": {}
}